   R0625040000030324Instrumentos financieros                      
0590042501FUBSU-120600        00000000DPF100000000000099278SUDAMER
0590042501FUBSU-070600        00000000DPF100000000000099353SUDAMER
0615330000BRA3010707          19831231BRP500000000001273954INP    
0615330000BRA2140604          19821231BRP500000000001798807INP    
0615330000BRA2211205          19821231BRP500000000001720348INP    
0615330000BRA3050811          19831231BRP500000000001121455INP    
0615330000BR71201206          19810831BRP500000000002158466INP    
0615330000BR32210111          19820430BRP500000000001793113INP    
0615330000BR16030804          19860228BRP500000000000796407INP    
0615330000BR02010607          19821130BRP500000000001703710INP    
0615330000BR01111202          19811130BRP500000000002366893INP    
0615330000BR01100907          19811130BRP500000000002041244INP    
0615330000BR14280608          19840229BRP500000000001218263INP    
0615330000BR01181212          19811130BRP500000000001731624INP    
0615330000BR01190608          19811130BRP500000000001989775INP    
0615330000BR01110109          19811130BRP500000000001956508INP    
0615330000BR15250708          19850228BRP500000000000921977INP    
0615330000AE41011008          19810531BRP500000000002107391INP    
0615330000BR02060303          19821130BRP500000000001944378INP    
0615330000BR01070912          19811130BRP500000000001748913INP    
0615330000BR04070401          19841130BRP500000000001232167INP    
0615330000BR01290908          19811130BRP500000000001976639INP    
0615330000BR01231102          19811130BRP500000000002375024INP    
0615330000BR01180902          19811130BRP500000000002381952INP    
0615330000BR04250206          19841130BRP500000000001061577INP    
0615330000BE61100405          19810731BRP500000000002298558INP    
0615330000BR01211103          19811130BRP500000000002304969INP    
0615330000BR01161101          19811130BRP500000000002438401INP    
0615330000BR01220903          19811130BRP500000000002316524INP    
0615330000BR01110503          19811130BRP500000000002338098INP    
0615330000BR01210502          19811130BRP500000000002398770INP    
0615330000BR01160710          19811130BRP500000000001866719INP    
0615330000BR04150903          19841130BRP500000000001144600INP    
0615330000BR01160206          19811130BRP500000000002141042INP    
0615330000BR01170901          19811130BRP500000000002451119INP    
0615330000BE63050202          19830731BRP500000000001697193INP    
0615330000BR01220401          19811130BRP500000000002481781INP    
0615330000BR01151007          19811130BRP500000000002034131INP    
0615330000BR01170209          19811130BRP500000000001949093INP    
0615330000BR01150603          19811130BRP500000000002330174INP    
0615330000BR02031103          19821130BRP500000000001905787INP    
0615330000AE41100506          19810531BRP500000000002269339INP    
0615330000BR01031105          19811130BRP500000000002163207INP    
0615330000BEA3231101          19831231BRP500000000001513872INP    
0615330000BR01310510          19811130BRP500000000001877167INP    
0615330000BR01020905          19811130BRP500000000002174972INP    
0615330000BR01301009          19811130BRP500000000001911146INP    
0615330000BR01010105          19811130BRP500000000002220255INP    
0615330000BR01140505          19811130BRP500000000002193050INP    
0615330000BR01060203          19811130BRP500000000002356936INP    
0615330000BR01080904          19811130BRP500000000002240519INP    
0615330000BE51270512          19810630BRP500000000001853075INP    
0615330000BR01100501          19811130BRP500000000002481255INP    
0615330000BR00130203          19901130BRP500000000000290170INP    
0615330000BR01080603          19811130BRP500000000002333283INP    
0615330000BE51120908          19810630BRP500000000002073737INP    
0615330000BR01070605          19811130BRP500000000002190128INP    
0615330000BE4B300507          19920531BRP500000000000194267INP    
0615330000BR01011001          19811130BRP500000000002452374INP    
0615330000BE41280404          19810531BRP500000000002419233INP    
0615330000BR01050902          19811130BRP500000000002387859INP    
0615330000BR01020411          19811130BRP500000000001829670INP    
0615330000BR01030113          19811130BRP500000000001732063INP    
0615330000BR01010404          19811130BRP500000000002273015INP    
0615330000BE12280808          19820228BRP500000000001936033INP    
0615330000BA61080103          19810731BRP500000000002468095INP    
0615330000AE91201001          19811031BRP500000000002459035INP    
0615330000AE71240410          19810831BRP500000000001950133INP    
0615330000AE51290704          19810630BRP500000000002361219INP    
0615330000AE41151101          19810531BRP500000000002601369INP    
0615330000AE51051203          19810630BRP500000000002412202INP    
0615330000AE32221201          19820430BRP500000000002373278INP    
0615330000BR71200703          19810831BRP500000000002403118INP    
0615330000BR51230603          19810630BRP500000000002448431INP    
0615330000BR22270605          19820331BRP500000000002147458INP    
0615330000BR08300409          19881130BRP500000000000409737INP    
0615330000BR41140902          19810531BRP500000000002542266INP    
0615330000BR33290908          19830430BRP500000000001481636INP    
0615330000BR32230906          19820430BRP500000000002051880INP    
0615330000BR22040409          19820331BRP500000000001907688INP    
0615330000BR51031113          19810630BRP500000000001771196INP    
0615330000BR41261008          19810531BRP500000000002104185INP    
0615330000BR41170801          19810531BRP500000000002621203INP    
0615330000BR41060713          19810531BRP500000000001818376INP    
0615330000BR41300110          19810531BRP500000000002022438INP    
0615330000BR13150605          19830228BRP500000000001682900INP    
0615330000BR41100712          19810531BRP500000000001874011INP    
0615330000BR34110606          19840430BRP500000000001258765INP    
0615330000BR52110608          19820630BRP500000000001940356INP    
0615330000BR01270705          19811130BRP500000000002183386INP    
0615330000BR41061007          19810531BRP500000000002173273INP    
0615330000BR41031208          19810531BRP500000000002095717INP    
0615330000BR41061103          19810531BRP500000000002457675INP    
0615330000BR12230904          19820228BRP500000000002188929INP    
0615330000BR32290608          19820430BRP500000000001939743INP    
0615330000BR22190204          19820331BRP500000000002240570INP    
0615330000BR51161208          19810630BRP500000000002056432INP    
0615330000BR33030104          19830430BRP500000000001719409INP    
0615330000BR49181205          19890531BRP500000000000411457INP    
0615330000BR41060902          19810531BRP500000000002546144INP    
0615330000BR48111005          19880531BRP500000000000487387INP    
0615330000BR41230110          19810531BRP500000000002025162INP    
0615330000BR41260703          19810531BRP500000000002481728INP    
0615330000BR32301003          19820430BRP500000000002246685INP    
0615330000BR51100709          19810630BRP500000000002021940INP    
0615330000BR41261210          19810531BRP500000000001967622INP    
0615330000BR41180915          19810531BRP500000000001698546INP    
0615330000BR41050403          19810531BRP500000000002502321INP    
0615330000BR41050804          19810531BRP500000000002397201INP    
0615330000BR12260503          19820228BRP500000000002284115INP    
0615330000BR06270406          19861130BRP500000000000660845INP    
0615330000BE81311005          19810930BRP500000000002205794INP    
0615330000BR41191204          19810531BRP500000000002366362INP    
0615330000BR12021004          19820228BRP500000000002185150INP    
0615330000BR41040503          19810531BRP500000000002496560INP    
0615330000BR22100706          19820331BRP500000000002077105INP    
0615330000BR41020501          19810531BRP500000000002650003INP    
0615330000BR01250610          19811130BRP500000000001874271INP    
0615330000BR16271006          19860228BRP500000000000743914INP    
0615330000BR12270607          19820228BRP500000000002009180INP    
0615330000BR41121105          19810531BRP500000000002303351INP    
0615330000BR01250813          19811130BRP500000000001699929INP    
0615330000BR0B300404          19921130BRP500000000000193470INP    
0615330000BR03151001          19831130BRP500000000001540643INP    
0615330000BR41050212          19810531BRP500000000001899939INP    
0615330000BR36120905          19860430BRP500000000000745751INP    
0615330000BR36010302          19860430BRP500000000000831588INP    
0615330000BR02300114          19821130BRP500000000001387148INP    
0615330000BR41060609          19810531BRP500000000002062141INP    
0615330000BR41050308          19810531BRP500000000002145880INP    
0615330000BR34060708          19840430BRP500000000001180365INP    
0615330000BR16180902          19860228BRP500000000000843607INP    
0615330000BR36270412          19860430BRP500000000000608257INP    
0615330000BR16211109          19860228BRP500000000000676237INP    
0615330000BR22080110          19820331BRP500000000001862295INP    
0615330000BR01270403          19811130BRP500000000002344343INP    
0615330000BR61220405          19810731BRP500000000002300715INP    
0615330000BR51230402          19810630BRP500000000002530117INP    
0615330000BE81040813          19810930BRP500000000001733658INP    
0615330000AE41031003          19810531BRP500000000002465537INP    
0615330000BR51130609          19810630BRP500000000002025949INP    
0615330000BR41060807          19810531BRP500000000002184416INP    
0615330000BR41060912          19810531BRP500000000001865558INP    
0615330000BR12011109          19820228BRP500000000001865825INP    
0615330000BR41020406          19810531BRP500000000002278601INP    
0615330000BR16250808          19860228BRP500000000000702512INP    
0615330000BR14030116          19840229BRP500000000000966366INP    
0615330000BR02260407          19821130BRP500000000001709923INP    
0615330000BR14110915          19840229BRP500000000000974996INP    
0615330000BR01241209          19811130BRP500000000001903447INP    
0615330000BR13271004          19830228BRP500000000001719454INP    
0615330000BR03270409          19831130BRP500000000001223659INP    
0615330000BR51170109          19810630BRP500000000002050519INP    
0615330000BR33010909          19830430BRP500000000001439493INP    
0615330000BR41170907          19810531BRP500000000002174043INP    
0615330000BR41031112          19810531BRP500000000001857062INP    
0615330000BR34010908          19840430BRP500000000001175232INP    
0615330000BR32030311          19820430BRP500000000001784791INP    
0615330000BR22050613          19820331BRP500000000001677410INP    
0615330000BR01240204          19811130BRP500000000002281686INP    
0615330000BR41230206          19810531BRP500000000002287877INP    
0615330000BR0A080503          19911130BRP500000000000235447INP    
0615330000BR41170811          19810531BRP500000000001925518INP    
0615330000BR2C170609          19930331BRP500000000000159178INP    
0615330000BR41040707          19810531BRP500000000002191024INP    
0615330000BR22180104          19820331BRP500000000002244250INP    
0615330000BR34200208          19840430BRP500000000001196878INP    
0615330000BR12220702          19820228BRP500000000002336689INP    
0615330000BR51230504          19810630BRP500000000002376197INP    
0615330000BR01260606          19811130BRP500000000002122852INP    
0615330000BR41030913          19810531BRP500000000001809826INP    
0615330000BR16160902          19860228BRP500000000000843928INP    
0615330000BR41271201          19810531BRP500000000002597154INP    
0615330000BR41040107          19810531BRP500000000002225295INP    
0615330000BR12250105          19820228BRP500000000002165291INP    
0615330000BR02200902          19821130BRP500000000001968256INP    
0615330000BR41230302          19810531BRP500000000002579091INP    
0615330000BR01261101          19811130BRP500000000002441495INP    
0615330000BR22061101          19820331BRP500000000002397332INP    
0615330000BR16231110          19860228BRP500000000000655373INP    
0615330000BR41181010          19810531BRP500000000001974414INP    
0615330000BR04300408          19841130BRP500000000000991922INP    
0615330000BR2D140814          19940331BRP500000000000115576INP    
0615330000BR0B050407          19921130BRP500000000000176600INP    
0615330000BR41040205          19810531BRP500000000002360436INP    
0615330000BR05140509          19851130BRP500000000000731548INP    
0615330000BR06031105          19861130BRP500000000000670061INP    
0615330000BE71201009          19810831BRP500000000001975199INP    
0615330000BR41020512          19810531BRP500000000001886645INP    
0615330000BR02280508          19821130BRP500000000001652863INP    
0615330000BR36200601          19860430BRP500000000000848278INP    
0615330000BR16291206          19860228BRP500000000000739745INP    
0615330000BR41011110          19810531BRP500000000001975584INP    
0615330000BR16200105          19860228BRP500000000000786002INP    
0615330000BR17100605          19870228BRP500000000000639413INP    
0615330000BR01180207          19811130BRP500000000002074711INP    
0615330000BR23040808          19830331BRP500000000001521026INP    
0615330000BR22110304          19820331BRP500000000002231556INP    
0615330000BR16290103          19860228BRP500000000000835938INP    
0615330000BR01240709          19811130BRP500000000001928711INP    
0615330000BRA2210708          19821231BRP500000000001582185INP    
0615330000BR23120702          19830331BRP500000000001836814INP    
0615330000BR91100601          19811031BRP500000000002490446INP    
0615330000BR71210606          19810831BRP500000000002198885INP    
0615330000BR61191103          19810731BRP500000000002401449INP    
0615330000BR51100909          19810630BRP500000000002011301INP    
0615330000BR51120409          19810630BRP500000000002037059INP    
0615330000BR51090905          19810630BRP500000000002278664INP    
0615330000BR61161106          19810731BRP500000000002186041INP    
0615330000BR41260807          19810531BRP500000000002183247INP    
0615330000BR51211003          19810630BRP500000000002417018INP    
0615330000BR41300402          19810531BRP500000000002568385INP    
0615330000BR41270602          19810531BRP500000000002563785INP    
0615330000BR41160212          19810531BRP500000000001895928INP    
0615330000BR41100212          19810531BRP500000000001898115INP    
0615330000BR41080212          19810531BRP500000000001898844INP    
0615330000BR61300106          19810731BRP500000000002244286INP    
0615330000BR51140602          19810630BRP500000000002520035INP    
0615330000BR51060806          19810630BRP500000000002216623INP    
0615330000BR41020710          19810531BRP500000000001995947INP    
0615330000BR51271206          19810630BRP500000000002192433INP    
0615330000BR51211102          19810630BRP500000000002484930INP    
0615330000BR41100701          19810531BRP500000000002631877INP    
0615330000BR41040609          19810531BRP500000000002062935INP    
0615330000BR61190812          19810731BRP500000000001827559INP    
0615330000BR14160805          19840229BRP500000000001329684INP    
0615330000BR41090307          19810531BRP500000000002211893INP    
0615330000BR22250805          19820331BRP500000000002137290INP    
0615330000BR51061006          19810630BRP500000000002205378INP    
0615330000BR41140806          19810531BRP500000000002249969INP    
0615330000BR41150708          19810531BRP500000000002118122INP    
0615330000BR41120712          19810531BRP500000000001873291INP    
0615330000BR82290403          19820930BRP500000000002131066INP    
0615330000BR71101009          19810831BRP500000000001979000INP    
0615330000BR61151111          19810731BRP500000000001872215INP    
0615330000BR51100610          19810630BRP500000000001965329INP    
0615330000BR61211103          19810731BRP500000000002400535INP    
0615330000BR41120702          19810531BRP500000000002556469INP    
0615330000BR41091101          19810531BRP500000000002604402INP    
0615330000BR41080814          19810531BRP500000000001759730INP    
0615330000BR61160803          19810731BRP500000000002421100INP    
0615330000BR41290502          19810531BRP500000000002562171INP    
0615330000BR51230103          19810630BRP500000000002479511INP    
0615330000BR51110110          19810630BRP500000000001990312INP    
0615330000BR51210711          19810630BRP500000000001897595INP    
0615330000BR51070502          19810630BRP500000000002523247INP    
0615330000BR51080208          19810630BRP500000000002114670INP    
0615330000BR42251103          19820531BRP500000000002237816INP    
0615330000BR61270810          19810731BRP500000000001946951INP    
0615330000BR41010610          19810531BRP500000000002001208INP    
0615330000BR44260705          19840531BRP500000000001272268INP    
0615330000BR41020807          19810531BRP500000000002186095INP    
0615330000BR61140114          19810731BRP500000000001752898INP    
0615330000BR41300908          19810531BRP500000000002107796INP    
0615330000BR51101212          19810630BRP500000000001819818INP    
0615330000BR51020104          19810630BRP500000000002407234INP    
0615330000BR51160808          19810630BRP500000000002077628INP    
0615330000BR51011204          19810630BRP500000000002335871INP    
0615330000BR44011206          19840531BRP500000000001219664INP    
0615330000BR41011214          19810531BRP500000000001744118INP    
0615330000BR41201111          19810531BRP500000000001915734INP    
0615330000BR41101109          19810531BRP500000000002034172INP    
0615330000BR41100909          19810531BRP500000000002044673INP    
0615330000BR41030604          19810531BRP500000000002410298INP    
0615330000BRA2170707          19821231BRP500000000001634444INP    
0615330000BE95130901          19851031BRP500000000000943841INP    
0615330000BR91151106          19811031BRP500000000002106109INP    
0615330000BR52090311          19820630BRP500000000001781994INP    
0615330000BR26060402          19860331BRP500000000000843599INP    
0615330000BR01290502          19811130BRP500000000002402898INP    
0615330000BR12120805          19820228BRP500000000002125687INP    
0615330000BR01280104          19811130BRP500000000002290468INP    
0615330000BR51020912          19810630BRP500000000001836520INP    
0615330000BR41010212          19810531BRP500000000001901400INP    
0615330000BR41130610          19810531BRP500000000001996596INP    
0615330000BR41010116          19810531BRP500000000001686638INP    
0615330000BR41230606          19810531BRP500000000002257489INP    
0615330000BR22201005          19820331BRP500000000002121425INP    
0615330000BR41010105          19810531BRP500000000002368178INP    
0615330000BR33150304          19830430BRP500000000001703532INP    
0615330000BR71100908          19810831BRP500000000002046206INP    
0615330000BR51140405          19810630BRP500000000002306410INP    
0615330000BR51060709          19810630BRP500000000002023496INP    
0615330000BR51060102          19810630BRP500000000002549917INP    
0615330000BR51080603          19810630BRP500000000002447568INP    
0615330000BR32051006          19820430BRP500000000002047159INP    
0615330000BR41200515          19810531BRP500000000001721237INP    
0615330000BR41141102          19810531BRP500000000002529477INP    
0615330000BR51220508          19810630BRP500000000002099861INP    
0615330000BR41090603          19810531BRP500000000002487468INP    
0615330000BR33100102          19830430BRP500000000001820255INP    
0615330000BR22010707          19820331BRP500000000002016982INP    
0615330000BR41270507          19810531BRP500000000002199740INP    
0615330000BR41090614          19810531BRP500000000001768321INP    
0615330000BR41210907          19810531BRP500000000002172373INP    
0615330000BR41090710          19810531BRP500000000001993263INP    
0615330000BR91100402          19811031BRP500000000002425655INP    
0615330000BR51170210          19810630BRP500000000001982662INP    
0615330000BR32111001          19820430BRP500000000002383258INP    
0615330000BR13261005          19830228BRP500000000001667592INP    
0615330000BR51230710          19810630BRP500000000001961934INP    
0615330000BR41250116          19810531BRP500000000001684356INP    
0615330000BR51140304          19810630BRP500000000002385109INP    
0615330000BR41190904          19810531BRP500000000002384452INP    
0615330000BR51060907          19810630BRP500000000002143081INP    
0615330000BR41100308          19810531BRP500000000002143820INP    
0615330000BR41251004          19810531BRP500000000002383662INP    
0615330000BR41101014          19810531BRP500000000001750097INP    
0615330000BR41150614          19810531BRP500000000001766286INP    
0615330000BR3B111006          19920430BRP500000000000201180INP    
0615330000BR41140911          19810531BRP500000000001921529INP    
0615330000BR41140712          19810531BRP500000000001872572INP    
0615330000BR61230309          19810731BRP500000000002036381INP    
0615330000BR51030507          19810630BRP500000000002167050INP    
0615330000BR42290601          19820531BRP500000000002402393INP    
0615330000BR41260712          19810531BRP500000000001874466INP    
0615330000BR61191002          19810731BRP500000000002481825INP    
0615330000BR51101201          19810630BRP500000000002554947INP    
0615330000BR51020812          19810630BRP500000000001841373INP    
0615330000BR41260912          19810531BRP500000000001864537INP    
0615330000BR52180610          19820630BRP500000000001826083INP    
0615330000BR51010701          19810630BRP500000000002593392INP    
0615330000BR41300308          19810531BRP500000000002142513INP    
0615330000BR41090909          19810531BRP500000000002045067INP    
0615330000BR41270411          19810531BRP500000000001948108INP    
0615330000BR41260514          19810531BRP500000000001773078INP    
0615330000BR41050412          19810531BRP500000000001890359INP    
0615330000BR41010804          19810531BRP500000000002399042INP    
0615330000BRA2150507          19821231BRP500000000001643527INP    
0615330000AE41101006          19810531BRP500000000002240225INP    
0615330000BR01251101          19811130BRP500000000002441970INP    
0615330000BR01240410          19811130BRP500000000001884390INP    
0615330000BR71210803          19810831BRP500000000002403920INP    
0615330000BR61140902          19810731BRP500000000002490157INP    
0615330000BR51230701          19810630BRP500000000002582335INP    
0615330000BR51230211          19810630BRP500000000001926266INP    
0615330000BR61301206          19810731BRP500000000002181965INP    
0615330000BR41290512          19810531BRP500000000001882918INP    
0615330000BR4A050103          19910531BRP500000000000271999INP    
0615330000BR41280312          19810531BRP500000000001893267INP    
0615330000BR52160905          19820630BRP500000000002110841INP    
0615330000BR41190808          19810531BRP500000000002110906INP    
0615330000BR41240508          19810531BRP500000000002133679INP    
0615330000BR41171010          19810531BRP500000000001974794INP    
0615330000BR41260404          19810531BRP500000000002420162INP    
0615330000BR41011207          19810531BRP500000000002164171INP    
0615330000BR41010906          19810531BRP500000000002249634INP    
0615330000BR22130702          19820331BRP500000000002351594INP    
0615330000BR41010507          19810531BRP500000000002203665INP    
0615330000BR12271214          19820228BRP500000000001594153INP    
0615330000BR12070203          19820228BRP500000000002301117INP    
0615330000BR01280302          19811130BRP500000000002416114INP    
0615330000BR41010604          19810531BRP500000000002411224INP    
0615330000BR22230602          19820331BRP500000000002352782INP    
0615330000BR12110709          19820228BRP500000000001882041INP    
0615330000BR01280902          19811130BRP500000000002385112INP    
0615330000BR23130304          19830331BRP500000000001742052INP    
0615330000BR22011204          19820331BRP500000000002184437INP    
0615330000BR02240603          19821130BRP500000000001929188INP    
0615330000BR01280407          19811130BRP500000000002067739INP    
0615330000BR61150607          19810731BRP500000000002147216INP    
0615330000BR41300412          19810531BRP500000000001887370INP    
0615330000BR41250212          19810531BRP500000000001898798INP    
0615330000BR41100511          19810531BRP500000000001943248INP    
0615330000BR41170502          19810531BRP500000000002559918INP    
0615330000BR41061212          19810531BRP500000000001851376INP    
0615330000BR23160802          19830331BRP500000000001830628INP    
0615330000BR13200109          19830228BRP500000000001508083INP    
0615330000BR52120707          19820630BRP500000000001996101INP    
0615330000BR42310514          19820531BRP500000000001613473INP    
0615330000BR52070709          19820630BRP500000000001876626INP    
0615330000BR1C271105          19930228BRP500000000000179520INP    
0615330000BR41251207          19810531BRP500000000002161259INP    
0615330000BR41190701          19810531BRP500000000002627280INP    
0615330000BR41200410          19810531BRP500000000002010967INP    
0615330000BR33060204          19830430BRP500000000001710468INP    
0615330000BR61140611          19810731BRP500000000001897104INP    
0615330000BR51211202          19810630BRP500000000002478894INP    
0615330000BR41101004          19810531BRP500000000002382698INP    
0615330000BR41041215          19810531BRP500000000001690202INP    
0615330000BR51070304          19810630BRP500000000002388316INP    
0615330000BR41261103          19810531BRP500000000002456355INP    
0615330000BR51010513          19810630BRP500000000001799871INP    
0615330000BR41250106          19810531BRP500000000002293203INP    
0615330000BR61090701          19810731BRP500000000002578650INP    
0615330000BR41051111          19810531BRP500000000001914985INP    
0615330000BR41250405          19810531BRP500000000002347106INP    
0615330000BR41181201          19810531BRP500000000002593223INP    
0615330000BR41270613          19810531BRP500000000001821523INP    
0615330000BR41080407          19810531BRP500000000002206303INP    
0615330000BR32011102          19820430BRP500000000002314968INP    
0615330000BR22210603          19820331BRP500000000002283383INP    
0615330000BR91091210          19811031BRP500000000001856657INP    
0615330000BR51100805          19810630BRP500000000002284235INP    
0615330000BR41180903          19810531BRP500000000002464459INP    
0615330000BR41121113          19810531BRP500000000001797435INP    
0615330000BR52141102          19820630BRP500000000002308087INP    
0615330000BR41110806          19810531BRP500000000002251265INP    
0615330000BR51220912          19810630BRP500000000001835534INP    
0615330000BR41261114          19810531BRP500000000001745793INP    
0615330000BR41090411          19810531BRP500000000001948571INP    
0615330000BR13121207          19830228BRP500000000001558378INP    
0615330000BR41090105          19810531BRP500000000002364544INP    
0615330000BR12290703          19820228BRP500000000002271326INP    
0615330000BR37221105          19870430BRP500000000000607037INP    
0615330000BR13030904          19830228BRP500000000001726088INP    
0615330000BR07080902          19871130BRP500000000000581354INP    
0615330000BR03240211          19831130BRP500000000001156359INP    
0615330000BR51100407          19810630BRP500000000002169621INP    
0615330000BR41290607          19810531BRP500000000002193129INP    
0615330000BR41120913          19810531BRP500000000001806699INP    
0615330000BR22280603          19820331BRP500000000002287891INP    
0615330000BR41281012          19810531BRP500000000001859204INP    
0615330000BR41111115          19810531BRP500000000001692130INP    
0615330000BR41050603          19810531BRP500000000002489364INP    
0615330000BR41030414          19810531BRP500000000001779723INP    
0615330000BR41291006          19810531BRP500000000002239413INP    
0615330000BR12031108          19820228BRP500000000001923745INP    
0615330000BR41160414          19810531BRP500000000001775288INP    
0615330000BR41151202          19810531BRP500000000002522826INP    
0615330000BR41150813          19810531BRP500000000001810450INP    
0615330000BR41070510          19810531BRP500000000002004405INP    
0615330000BR24020511          19840331BRP500000000001113746INP    
0615330000BR18100502          19880229BRP500000000000562911INP    
0615330000BR51040602          19810630BRP500000000002517657INP    
0615330000BR12100702          19820228BRP500000000002342037INP    
0615330000BR41070605          19810531BRP500000000002335297INP    
0615330000BR41021111          19810531BRP500000000001916089INP    
0615330000BR41161213          19810531BRP500000000001793549INP    
0615330000BR3A090801          19910430BRP500000000000289430INP    
0615330000BR41121009          19810531BRP500000000002038839INP    
0615330000BR41050813          19810531BRP500000000001813932INP    
0615330000BR41290702          19810531BRP500000000002556668INP    
0615330000BR41070712          19810531BRP500000000001875092INP    
0615330000BR2E181105          19950331BRP500000000000133793INP    
0615330000BR22170405          19820331BRP500000000002155373INP    
0615330000BR41161203          19810531BRP500000000002447013INP    
0615330000BR41060104          19810531BRP500000000002445206INP    
0615330000BR41040311          19810531BRP500000000001954716INP    
0615330000BR02230503          19821130BRP500000000001928341INP    
0615330000BR41290911          19810531BRP500000000001922323INP    
0615330000BR41190305          19810531BRP500000000002348634INP    
0615330000BR03200805          19831130BRP500000000001369071INP    
0615330000BR01290608          19811130BRP500000000001992443INP    
0615330000BR2B161203          19920331BRP500000000000222050INP    
0615330000BR12300910          19820228BRP500000000001814206INP    
0615330000BR22310705          19820331BRP500000000002140530INP    
0615330000BR0C210902          19931130BRP500000000000171909INP    
0615330000BR41161108          19810531BRP500000000002095706INP    
0615330000BR12050202          19820228BRP500000000002367153INP    
0615330000BR41060308          19810531BRP500000000002145467INP    
0615330000BR35061007          19850430BRP500000000000894800INP    
0615330000BR41081104          19810531BRP500000000002377265INP    
0615330000BR41060212          19810531BRP500000000001899574INP    
0615330000BR41060503          19810531BRP500000000002495609INP    
0615330000BR41060115          19810531BRP500000000001737771INP    
0615330000BR32160310          19820430BRP500000000001836308INP    
0615330000BR01061203          19811130BRP500000000002298391INP    
0615330000BR61291103          19810731BRP500000000002404789INP    
0615330000BR43130602          19830531BRP500000000001742910INP    
0615330000BR61220808          19810731BRP500000000002066402INP    
0615330000BR41260310          19810531BRP500000000002014159INP    
0615330000BR61150310          19810731BRP500000000001970928INP    
0615330000BR41290904          19810531BRP500000000002387734INP    
0615330000BR41200104          19810531BRP500000000002438693INP    
0615330000BR41081001          19810531BRP500000000002612047INP    
0615330000BR41290507          19810531BRP500000000002198895INP    
0615330000BR71310512          19810831BRP500000000001826718INP    
0615330000BR55230103          19850630BRP500000000000988104INP    
0615330000BR97121002          19871031BRP500000000000595360INP    
0615330000BR71080904          19810831BRP500000000002318394INP    
0615330000BR94090905          19841031BRP500000000001167062INP    
0615330000BR61020404          19810731BRP500000000002374201INP    
0615330000BR72140207          19820831BRP500000000001955626INP    
0615330000BR91230309          19811031BRP500000000001961863INP    
0615330000BR6B020111          19920731BRP500000000000169515INP    
0615330000BR81010108          19810930BRP500000000002062363INP    
0615330000BR91180906          19811031BRP500000000002116035INP    
0615330000BR51060402          19810630BRP500000000002530296INP    
0615330000BRA2281002          19821231BRP500000000001897368INP    
0615330000BR72090601          19820831BRP500000000002330779INP    
0615330000BR71201102          19810831BRP500000000002451570INP    
0615330000BR51120901          19810630BRP500000000002573927INP    
0615330000BR32150614          19820430BRP500000000001612587INP    
0615330000BR7A210107          19910831BRP500000000000222999INP    
0615330000BR72050106          19820831BRP500000000002026257INP    
0615330000BR61301209          19810731BRP500000000001986528INP    
0615330000BRA3090205          19831231BRP500000000001370017INP    
0615330000BRA1220805          19811231BRP500000000002168579INP    
0615330000BR61301110          19810731BRP500000000001930766INP    
0615330000BR82080805          19820930BRP500000000001980815INP    
0615330000BRA1220601          19811231BRP500000000002456160INP    
0615330000BR72061007          19820831BRP500000000001918975INP    
0615330000BRA1210911          19811231BRP500000000001796049INP    
0615330000BRB1111209          19820131BRP500000000001876526INP    
0615330000BRBB230902          19930131BRP500000000000198718INP    
0615330000BR72050805          19820831BRP500000000002052539INP    
0615330000BR51130701          19810630BRP500000000002587355INP    
0615330000BR91030706          19811031BRP500000000002133687INP    
0615330000BR79131107          19890831BRP500000000000363708INP    
0615330000BR72030910          19820831BRP500000000001752691INP    
0615330000BRA2020203          19821231BRP500000000001880891INP    
0615330000BR91260307          19811031BRP500000000002087517INP    
0615330000BR51130603          19810630BRP500000000002445238INP    
0615330000BRA1150108          19811231BRP500000000002007756INP    
0615330000BR81190107          19810930BRP500000000002120211INP    
0615330000BR82290901          19820930BRP500000000002230751INP    
0615330000BR51040604          19810630BRP500000000002370729INP    
0615330000BR51100711          19810630BRP500000000001901610INP    
0615330000BR02031111          19821130BRP500000000001484684INP    
0615330000BR52230606          19820630BRP500000000002066681INP    
0615330000BR91040403          19811031BRP500000000002362144INP    
0615330000BR91070803          19811031BRP500000000002336802INP    
0615330000BR85280305          19850930BRP500000000000861852INP    
0615330000BRB2170908          19830131BRP500000000001551717INP    
0615330000BR72020604          19820831BRP500000000002129218INP    
0615330000BRB2100808          19830131BRP500000000001558003INP    
0615330000BR62191003          19820731BRP500000000002220749INP    
0615330000BR91030901          19811031BRP500000000002473606INP    
0615330000BR49201104          19890531BRP500000000000425227INP    
0615330000BR71070910          19810831BRP500000000001924475INP    
0615330000BR92241101          19821031BRP500000000002115884INP    
0615330000BR81120309          19810930BRP500000000001984186INP    
0615330000BR81270903          19810930BRP500000000002358269INP    
0615330000BRB2051008          19830131BRP500000000001551393INP    
0615330000BR92260806          19821031BRP500000000001835377INP    
0615330000BR91180805          19811031BRP500000000002188196INP    
0615330000BR61011201          19810731BRP500000000002548637INP    
0615330000BR51140607          19810630BRP500000000002156575INP    
0615330000BRA1180705          19811231BRP500000000002169021INP    
0615330000BR81271206          19810930BRP500000000002129592INP    
0615330000BRBF121001          19970131BRP500000000000123826INP    
0615330000BR81050401          19810930BRP500000000002537597INP    
0615330000BR61261102          19810731BRP500000000002480239INP    
0615330000BR84280306          19840930BRP500000000001186588INP    
0615330000BR91130111          19811031BRP500000000001850332INP    
0615330000BR41280212          19810531BRP500000000001897703INP    
0615330000BR62180812          19820731BRP500000000001685976INP    
0615330000BR91130404          19811031BRP500000000002282497INP    
0615330000BR61100103          19810731BRP500000000002467154INP    
0615330000BR41280307          19810531BRP500000000002210969INP    
0615330000BR91070308          19811031BRP500000000002024399INP    
0615330000BRB1020603          19820131BRP500000000002304530INP    
0615330000BR61011209          19810731BRP500000000001991086INP    
0615330000BRAB310107          19921231BRP500000000000174570INP    
0615330000BR9G131003          19971031BRP500000000000108496INP    
0615330000BR81080702          19810930BRP500000000002444938INP    
0615330000BR91031111          19811031BRP500000000001807574INP    
0615330000BR51120413          19810630BRP500000000001800626INP    
0615330000BR02020105          19821130BRP500000000001834990INP    
0615330000BR51100808          19810630BRP500000000002080026INP    
0615330000BR41271012          19810531BRP500000000001859562INP    
0615330000BR91240801          19811031BRP500000000002478415INP    
0615330000BR91130801          19811031BRP500000000002475704INP    
0615330000BR91120806          19811031BRP500000000002124242INP    
0615330000BR41280506          19810531BRP500000000002268783INP    
0615330000BRB1210105          19820131BRP500000000002189055INP    
0615330000BR71280404          19810831BRP500000000002347854INP    
0615330000BR91111204          19811031BRP500000000002236329INP    
0615330000BR91141104          19811031BRP500000000002240481INP    
0615330000BR51121009          19810630BRP500000000002005584INP    
0615330000BR91060406          19811031BRP500000000002148897INP    
0615330000BR91190512          19811031BRP500000000001774905INP    
0615330000BR81260701          19810930BRP500000000002515449INP    
0615330000BRB1010102          19820131BRP500000000002399890INP    
0615330000BR81041204          19810930BRP500000000002267540INP    
0615330000BR41290306          19810531BRP500000000002280351INP    
0615330000BR71281104          19810831BRP500000000002305452INP    
0615330000BR81101007          19810930BRP500000000002074752INP    
0615330000BR63070207          19830731BRP500000000001455639INP    
0615330000BR41060801          19810531BRP500000000002626809INP    
0615330000BR61190709          19810731BRP500000000002016554INP    
0615330000BR51060205          19810630BRP500000000002321143INP    
0615330000BR51100702          19810630BRP500000000002515646INP    
0615330000BR41280108          19810531BRP500000000002154187INP    
0615330000BR61020810          19810731BRP500000000001949832INP    
0615330000BRB1280605          19820131BRP500000000002159054INP    
0615330000BR71080206          19810831BRP500000000002219359INP    
0615330000BR94011002          19841031BRP500000000001280795INP    
0615330000BR62281201          19820731BRP500000000002346136INP    
0615330000BR91190801          19811031BRP500000000002472821INP    
0615330000BR71080705          19810831BRP500000000002260309INP    
0615330000BR15200403          19850228BRP500000000001084453INP    
0615330000BR61220703          19810731BRP500000000002432660INP    
0615330000BR61141203          19810731BRP500000000002397926INP    
0615330000BR61150108          19810731BRP500000000002108622INP    
0615330000BR61141101          19810731BRP500000000002548655INP    
0615330000BR91180603          19811031BRP500000000002343900INP    
0615330000BRA2110307          19821231BRP500000000001653223INP    
0615330000BRA1180304          19811231BRP500000000002260034INP    
0615330000BR9E220212          19951031BRP500000000000101758INP    
0615330000BR91101212          19811031BRP500000000001745615INP    
0615330000BR61091005          19810731BRP500000000002263516INP    
0615330000BRA2230508          19821231BRP500000000001596039INP    
0615330000BR71211011          19810831BRP500000000001857319INP    
0615330000BRA1170603          19811231BRP500000000002317466INP    
0615330000BR91140804          19811031BRP500000000002258473INP    
0615330000BRA1161211          19811231BRP500000000001778051INP    
0615330000BR95070802          19851031BRP500000000000920878INP    
0615330000BR98201006          19881031BRP500000000000450609INP    
0615330000BR91241010          19811031BRP500000000001866927INP    
0615330000BR91220901          19811031BRP500000000002472445INP    
0615330000BR61140908          19810731BRP500000000002064142INP    
0615330000BR51230607          19810630BRP500000000002159773INP    
0615330000BR91220509          19811031BRP500000000001952078INP    
0615330000BR51230304          19810630BRP500000000002388723INP    
0615330000BR91211112          19811031BRP500000000001746178INP    
0615330000BRB1290513          19820131BRP500000000001689098INP    
0615330000BR95180606          19851031BRP500000000000815419INP    
0615330000BR95030208          19851031BRP500000000000776300INP    
0615330000BR8C111011          19930930BRP500000000000135616INP    
0615330000BR51230206          19810630BRP500000000002250680INP    
0615330000BRBD291103          19950131BRP500000000000145328INP    
0615330000BR94260901          19841031BRP500000000001318948INP    
0615330000BR91220205          19811031BRP500000000002227189INP    
0615330000BR91221202          19811031BRP500000000002377364INP    
0615330000BR91150902          19811031BRP500000000002398648INP    
0615330000BR8B251209          19920930BRP500000000000169622INP    
0615330000BR91180203          19811031BRP500000000002366860INP    
0615330000BR15140904          19850228BRP500000000001037421INP    
0615330000BR8E190209          19950930BRP500000000000112693INP    
0615330000BRA1080602          19811231BRP500000000002386066INP    
0615330000BR96240803          19861031BRP500000000000732483INP    
0615330000BR91010115          19811031BRP500000000001641422INP    
0615330000BR91091101          19811031BRP500000000002457378INP    
0615330000BR61090813          19810731BRP500000000001775348INP    
0615330000BR61211211          19810731BRP500000000001871583INP    
0615330000BR96170403          19861031BRP500000000000738601INP    
0615330000BR71210901          19810831BRP500000000002534344INP    
0615330000BRB7030209          19880131BRP500000000000462455INP    
0615330000BR91310801          19811031BRP500000000002475048INP    
0615330000BRA2261211          19821231BRP500000000001426977INP    
0615330000BR71200706          19810831BRP500000000002186679INP    
0615330000BR16050508          19860228BRP500000000000708877INP    
0615330000BR71200308          19810831BRP500000000002076444INP    
0615330000BR61220601          19810731BRP500000000002587178INP    
0615330000BR90291001          19901031BRP500000000000314181INP    
0615330000BR91310106          19811031BRP500000000002161607INP    
0615330000BR8D290910          19940930BRP500000000000121197INP    
0615330000BR96101105          19861031BRP500000000000681506INP    
0615330000BR71210702          19810831BRP500000000002476627INP    
0615330000BR91140308          19811031BRP500000000002021680INP    
0615330000BR91100105          19811031BRP500000000002230875INP    
0615330000BR16040205          19860228BRP500000000000783742INP    
0615330000BR91100901          19811031BRP500000000002470246INP    
0615330000BR91101002          19811031BRP500000000002394951INP    
0615330000BR95270504          19851031BRP500000000000870948INP    
0615330000BR91230202          19811031BRP500000000002439400INP    
0615330000BR91301107          19811031BRP500000000002042503INP    
0615330000BR91090814          19811031BRP500000000001660441INP    
0615330000BR8H030707          19980930BRP500000000000089451INP    
0615330000BR9D160401          19941031BRP500000000000160777INP    
0615330000BRB1280311          19820131BRP500000000001806714INP    
0615330000BR61140804          19810731BRP500000000002343961INP    
0615330000BR9C190303          19931031BRP500000000000174371INP    
0615330000BRB7180410          19880131BRP500000000000444972INP    
0615330000BR61220308          19810731BRP500000000002102140INP    
0615330000BR8D040104          19940930BRP500000000000149625INP    
0615330000BRA2250308          19821231BRP500000000001603641INP    
0615330000BR32140615          19820430BRP500000000001563936INP    
0615330000BR16090302          19860228BRP500000000000855878INP    
0615330000BR01150109          19811130BRP500000000001955004INP    
0615330000BE41070402          19810531BRP500000000002571589INP    
0615330000BR82250905          19820930BRP500000000001975359INP    
0615330000BR41080906          19810531BRP500000000002246613INP    
0615330000BR61030203          19810731BRP500000000002463951INP    
0615330000BR52200212          19820630BRP500000000001734346INP    
0615330000BR61100309          19810731BRP500000000002034848INP    
0615330000BR61021206          19810731BRP500000000002186531INP    
0615330000BR51040406          19810630BRP500000000002240718INP    
0615330000BR41080810          19810531BRP500000000001988383INP    
0615330000BR61090509          19810731BRP500000000002024614INP    
0615330000BR41041209          19810531BRP500000000002031446INP    
0615330000BR41260202          19810531BRP500000000002583285INP    
0615330000BR41080716          19810531BRP500000000001658560INP    
0615330000BR52130908          19820630BRP500000000001923221INP    
0615330000BR41230514          19810531BRP500000000001774100INP    
0615330000BR41270804          19810531BRP500000000002395003INP    
0615330000BR41270204          19810531BRP500000000002431986INP    
0615330000BR71260504          19810831BRP500000000002342850INP    
0615330000BR91190112          19811031BRP500000000001792904INP    
0615330000BR51300314          19810630BRP500000000001752150INP    
0615330000BR71180608          19810831BRP500000000002060872INP    
0615330000BR61250202          19810731BRP500000000002531154INP    
0615330000BR51190711          19810630BRP500000000001898325INP    
0615330000BR41100102          19810531BRP500000000002590101INP    
0615330000BR91030505          19811031BRP500000000002211919INP    
0615330000BR81250203          19810930BRP500000000002401297INP    
0615330000BR71081102          19810831BRP500000000002457182INP    
0615330000BR42240106          19820531BRP500000000002089182INP    
0615330000BR81170305          19810930BRP500000000002245232INP    
0615330000BR51150704          19810630BRP500000000002359708INP    
0615330000BR61281201          19810731BRP500000000002543646INP    
0615330000BR61251001          19810731BRP500000000002558574INP    
0615330000BR91011009          19811031BRP500000000001927957INP    
0615330000BR64030504          19840731BRP500000000001280063INP    
0615330000BR61281101          19810731BRP500000000002550122INP    
0615330000BR41091011          19810531BRP500000000001918633INP    
0615330000BR81300705          19810930BRP500000000002223661INP    
0615330000BR41240903          19810531BRP500000000002469768INP    
0615330000BR72111202          19820831BRP500000000002229470INP    
0615330000BR61250806          19810731BRP500000000002206486INP    
0615330000BR81281201          19810930BRP500000000002481163INP    
0615330000BR32310507          19820430BRP500000000002006780INP    
0615330000BR41171110          19810531BRP500000000001969516INP    
0615330000BR41171100          19810531BRP500000000002681872INP    
0615330000BR51160509          19810630BRP500000000002030335INP    
0615330000BR51020403          19810630BRP500000000002463070INP    
0615330000BR51020304          19810630BRP500000000002390610INP    
0615330000BR42210102          19820531BRP500000000002361847INP    
0615330000BRB1171207          19820131BRP500000000001995680INP    
0615330000BR81250214          19810930BRP500000000001707308INP    
0615330000BRB1090406          19820131BRP500000000002105022INP    
0615330000BRB0031207          19910131BRP500000000000244963INP    
0615330000BR51061108          19810630BRP500000000002065513INP    
0615330000BRB4131201          19850131BRP500000000001167331INP    
0615330000BR61240604          19810731BRP500000000002359434INP    
0615330000BRB1051001          19820131BRP500000000002417712INP    
0615330000BR82180705          19820930BRP500000000001982400INP    
0615330000BR91030104          19811031BRP500000000002308739INP    
0615330000BR81160712          19810930BRP500000000001788825INP    
0615330000BR71260108          19810831BRP500000000002091233INP    
0615330000BR71280711          19810831BRP500000000001875597INP    
0615330000BR71260711          19810831BRP500000000001876318INP    
0615330000BRB3151205          19840131BRP500000000001321423INP    
0615330000BR71250210          19810831BRP500000000001959196INP    
0615330000BR61240705          19810731BRP500000000002281949INP    
0615330000BR61211009          19810731BRP500000000001993640INP    
0615330000BRB1180801          19820131BRP500000000002424511INP    
0615330000BR68090709          19880731BRP500000000000426381INP    
0615330000BR41190508          19810531BRP500000000002135729INP    
0615330000BR71151007          19810831BRP500000000002105036INP    
0615330000BR61120405          19810731BRP500000000002297676INP    
0615330000BR01180909          19811130BRP500000000001914251INP    
0615330000BRA4220513          19841231BRP500000000000833477INP    
0615330000BRB1180310          19820131BRP500000000001859916INP    
0615330000BRA1040306          19811231BRP500000000002130609INP    
0615330000BR76011014          19860831BRP500000000000533286INP    
0615330000BR51250110          19810630BRP500000000001991449INP    
0615330000BR71101211          19810831BRP500000000001851785INP    
0615330000BR41120613          19810531BRP500000000001820711INP    
0615330000BR41180813          19810531BRP500000000001809407INP    
0615330000BR41121202          19810531BRP500000000002524268INP    
0615330000BR51310711          19810630BRP500000000001900266INP    
0615330000BR51160703          19810630BRP500000000002437725INP    
0615330000BR41280601          19810531BRP500000000002638018INP    
0615330000BR41130109          19810531BRP500000000002086056INP    
0615330000BR41180508          19810531BRP500000000002129293INP    
0615330000BR91291104          19811031BRP500000000002241486INP    
0615330000BR71090105          19810831BRP500000000002294487INP    
0615330000BR72221114          19820831BRP500000000001542799INP    
0615330000BR61080206          19810731BRP500000000002240413INP    
0615330000BR71260607          19810831BRP500000000002129508INP    
0615330000BR61290901          19810731BRP500000000002563040INP    
0615330000BR9B250407          19921031BRP500000000000179021INP    
0615330000BR9B020902          19921031BRP500000000000207405INP    
0615330000BR61020704          19810731BRP500000000002355813INP    
0615330000BR41100914          19810531BRP500000000001754411INP    
0615330000BR72210606          19820831BRP500000000002001067INP    
0615330000BR51261101          19810630BRP500000000002561904INP    
0615330000BR61290913          19810731BRP500000000001769757INP    
0615330000BR61120104          19810731BRP500000000002392558INP    
0615330000BRA2191103          19821231BRP500000000001833002INP    
0615330000BR71191202          19810831BRP500000000002446135INP    
0615330000BR82281008          19820930BRP500000000001793275INP    
0615330000BR71101004          19810831BRP500000000002311877INP    
0615330000BRB1251110          19820131BRP500000000001824932INP    
0615330000BR71101113          19810831BRP500000000001744738INP    
0615330000BR71220110          19810831BRP500000000001965601INP    
0615330000BR91160510          19811031BRP500000000001888589INP    
0615330000BR61230106          19810731BRP500000000002247304INP    
0615330000BR32190202          19820430BRP500000000002361472INP    
0615330000BR61140606          19810731BRP500000000002215465INP    
0615330000BR77250311          19870831BRP500000000000477186INP    
0615330000BRA1311205          19811231BRP500000000002142248INP    
0615330000BR91120203          19811031BRP500000000002369568INP    
0615330000BRA1200901          19811231BRP500000000002437338INP    
0615330000BR61140503          19810731BRP500000000002441151INP    
0615330000BR16011203          19860228BRP500000000000814865INP    
0615330000BR51161104          19810630BRP500000000002334926INP    
0615330000BR41270216          19810531BRP500000000001679157INP    
0615330000BR51100606          19810630BRP500000000002226404INP    
0615330000BR91250709          19811031BRP500000000001940767INP    
0615330000BR72150304          19820831BRP500000000002140765INP    
0615330000BR8A091001          19910930BRP500000000000258527INP    
0615330000BR71090812          19810831BRP500000000001813980INP    
0615330000BR81290705          19810930BRP500000000002224088INP    
0615330000BR71091004          19810831BRP500000000002312321INP    
0615330000BR51161215          19810630BRP500000000001658844INP    
0615330000BR81221010          19810930BRP500000000001884906INP    
0615330000BR91261002          19811031BRP500000000002395338INP    
0615330000BR7A270104          19910831BRP500000000000245661INP    
0615330000BR91140103          19811031BRP500000000002374833INP    
0615330000BR91251202          19811031BRP500000000002383899INP    
0615330000BRB1110605          19820131BRP500000000002159009INP    
0615330000BR91260603          19811031BRP500000000002347953INP    
0615330000BR81280308          19810930BRP500000000002048273INP    
0615330000BR81230105          19810930BRP500000000002260754INP    
0615330000BR61200412          19810731BRP500000000001852556INP    
0615330000BR51211107          19810630BRP500000000002133010INP    
0615330000BRB1150703          19820131BRP500000000002293246INP    
0615330000BRA1260504          19811231BRP500000000002252452INP    
0615330000BRA1011101          19811231BRP500000000002433235INP    
0615330000BR61151104          19810731BRP500000000002325513INP    
0615330000BR91280503          19811031BRP500000000002353297INP    
0615330000BR78150501          19880831BRP500000000000545740INP    
0615330000BR01070609          19811130BRP500000000001933580INP    
0615330000BR41121107          19810531BRP500000000002164984INP    
0615330000BR41040207          19810531BRP500000000002219298INP    
0615330000BR61270901          19810731BRP500000000002564036INP    
0615330000BR61230401          19810731BRP500000000002600672INP    
0615330000BR41290914          19810531BRP500000000001753795INP    
0615330000BR41260406          19810531BRP500000000002275445INP    
0615330000BR82251204          19820930BRP500000000002021927INP    
0615330000BR82231208          19820930BRP500000000001785858INP    
0615330000BR9A211004          19911031BRP500000000000231594INP    
0615330000BR91200908          19811031BRP500000000001992781INP    
0615330000BR52151209          19820630BRP500000000001849750INP    
0615330000BR81080307          19810930BRP500000000002114105INP    
0615330000BR81250409          19810930BRP500000000001980373INP    
0615330000BR71290502          19810831BRP500000000002486652INP    
0615330000BRAB151102          19921231BRP500000000000198784INP    
0615330000BR91070205          19811031BRP500000000002226264INP    
0615330000BR72080611          19820831BRP500000000001712256INP    
0615330000BRA1070803          19811231BRP500000000002310107INP    
0615330000BRB1200406          19820131BRP500000000002100583INP    
0615330000BR91200205          19811031BRP500000000002220715INP    
0615330000BR85190801          19850930BRP500000000000959971INP    
0615330000BRAD260411          19941231BRP500000000000116073INP    
0615330000BR81170903          19810930BRP500000000002355193INP    
0615330000BR81250804          19810930BRP500000000002289259INP    
0615330000BR52170103          19820630BRP500000000002295115INP    
0615330000BRA4100404          19841231BRP500000000001106731INP    
0615330000BR62220305          19820731BRP500000000002127825INP    
0615330000BR81050608          19810930BRP500000000002034521INP    
0615330000BR51120609          19810630BRP500000000002026339INP    
0615330000BRA4020212          19841231BRP500000000000869335INP    
0615330000BR51231205          19810630BRP500000000002262835INP    
0615330000BR81251007          19810930BRP500000000002075680INP    
0615330000BR71250108          19810831BRP500000000002091635INP    
0615330000BR41040110          19810531BRP500000000002025974INP    
0615330000BR01060304          19811130BRP500000000002276873INP    
0615330000BR61150208          19810731BRP500000000002102979INP    
0615330000BR41020313          19810531BRP500000000001838890INP    
0615330000BR51170305          19810630BRP500000000002311336INP    
0615330000BR41190308          19810531BRP500000000002140118INP    
0615330000BR71100702          19810831BRP500000000002481823INP    
0615330000BR71080105          19810831BRP500000000002294927INP    
0615330000BR71020905          19810831BRP500000000002250569INP    
0615330000BR51150509          19810630BRP500000000002030726INP    
0615330000BR62100510          19820731BRP500000000001810137INP    
0615330000BR61161209          19810731BRP500000000001985352INP    
0615330000BR61110311          19810731BRP500000000001912322INP    
0615330000BR41160111          19810531BRP500000000001959693INP    
0615330000BRB3241005          19840131BRP500000000001330373INP    
0615330000BR76151002          19860831BRP500000000000771321INP    
0615330000BRA1240909          19811231BRP500000000001908579INP    
0615330000BR80081009          19900930BRP500000000000258483INP    
0615330000BR62310801          19820731BRP500000000002369506INP    
0615330000BR51071007          19810630BRP500000000002137415INP    
0615330000BR41260604          19810531BRP500000000002407679INP    
0615330000BR62020901          19820731BRP500000000002368585INP    
0615330000BR5E020310          19950630BRP500000000000114048INP    
0615330000BR7D290701          19940831BRP500000000000163244INP    
0615330000BR71251105          19810831BRP500000000002236775INP    
0615330000BR7C070803          19930831BRP500000000000179430INP    
0615330000BR71100109          19810831BRP500000000002025418INP    
0615330000BR12010703          19820228BRP500000000002275989INP    
0615330000BR51120306          19810630BRP500000000002243348INP    
0615330000BR41271213          19810531BRP500000000001795616INP    
0615330000BRA4200212          19841231BRP500000000000866334INP    
0615330000BR71180106          19810831BRP500000000002221016INP    
0615330000BR92280208          19821031BRP500000000001750848INP    
0615330000BR82040607          19820930BRP500000000001873111INP    
0615330000BR91050106          19811031BRP500000000002165252INP    
0615330000BR81280808          19810930BRP500000000002020111INP    
0615330000BR41190803          19810531BRP500000000002470406INP    
0615330000BRB1070203          19820131BRP500000000002324586INP    
0615330000BR61180407          19810731BRP500000000002157258INP    
0615330000BR71160811          19810831BRP500000000001868763INP    
0615330000BR71160704          19810831BRP500000000002327534INP    
0615330000BRA6150605          19861231BRP500000000000665782INP    
0615330000BR71071201          19810831BRP500000000002521691INP    
0615330000BR81130210          19810930BRP500000000001927378INP    
0615330000BR61101102          19810731BRP500000000002479628INP    
0615330000BR92031201          19821031BRP500000000002119229INP    
0615330000BR55190106          19850630BRP500000000000897096INP    
0615330000BR62011009          19820731BRP500000000001845922INP    
0615330000BR41240512          19810531BRP500000000001884728INP    
0615330000BR02080401          19821130BRP500000000002057114INP    
0615330000BR81280702          19810930BRP500000000002443522INP    
0615330000BR61040311          19810731BRP500000000001914898INP    
0615330000BRB1201006          19820131BRP500000000002068372INP    
0615330000BR91261102          19811031BRP500000000002389170INP    
0615330000BR51110204          19810630BRP500000000002392014INP    
0615330000BRB1160402          19820131BRP500000000002374730INP    
0615330000BR6B180406          19920731BRP500000000000195980INP    
0615330000BR81220305          19810930BRP500000000002243078INP    
0615330000BR71091201          19810831BRP500000000002520712INP    
0615330000BR91250909          19811031BRP500000000001930183INP    
0615330000BR71121103          19810831BRP500000000002381979INP    
0615330000BR91080110          19811031BRP500000000001910341INP    
0615330000BR51120506          19810630BRP500000000002231632INP    
0615330000BR71100902          19810831BRP500000000002468502INP    
0615330000BR51060512          19810630BRP500000000001854584INP    
0615330000BR61031209          19810731BRP500000000001990320INP    
0615330000BR41171005          19810531BRP500000000002307285INP    
0615330000BR61190405          19810731BRP500000000002294590INP    
0615330000BR51120707          19810630BRP500000000002151907INP    
0615330000BRB3050106          19840131BRP500000000001320353INP    
0615330000BR86050406          19860930BRP500000000000686281INP    
0615330000BR91200805          19811031BRP500000000002187356INP    
0615330000BR82150203          19820930BRP500000000002139797INP    
0615330000BR91071001          19811031BRP500000000002465252INP    
0615330000BR81281013          19810930BRP500000000001722302INP    
0615330000BRA3260505          19831231BRP500000000001360262INP    
0615330000BR91070612          19811031BRP500000000001774217INP    
0615330000BR91061111          19811031BRP500000000001806533INP    
0615330000BRA3220604          19831231BRP500000000001395619INP    
0615330000BR61051203          19810731BRP500000000002402041INP    
0615330000BR51230107          19810630BRP500000000002188227INP    
0615330000BRA1101009          19811231BRP500000000001902717INP    
0615330000BR81161102          19810930BRP500000000002415848INP    
0615330000BR81250606          19810930BRP500000000002163717INP    
0615330000BR61210608          19810731BRP500000000002084479INP    
0615330000BRB1310305          19820131BRP500000000002174654INP    
0615330000BR51070708          19810630BRP500000000002086712INP    
0615330000BR51221002          19810630BRP500000000002490953INP    
0615330000BR02060508          19821130BRP500000000001654437INP    
0615330000BR92050404          19821031BRP500000000001974069INP    
0615330000BR61060902          19810731BRP500000000002493956INP    
0615330000BR71050407          19810831BRP500000000002142373INP    
0615330000BR61100206          19810731BRP500000000002239553INP    
0615330000BR91240608          19811031BRP500000000002007233INP    
0615330000BR82020704          19820930BRP500000000002050786INP    
0615330000BR71190708          19810831BRP500000000002053912INP    
0615330000BR61210804          19810731BRP500000000002340814INP    
0615330000BR51230901          19810630BRP500000000002576939INP    
0615330000BR91181103          19811031BRP500000000002313638INP    
0615330000BR73191007          19830831BRP500000000001391589INP    
0615330000BR81121204          19810930BRP500000000002264060INP    
0615330000BR91051111          19811031BRP500000000001806880INP    
0615330000BR71280601          19810831BRP500000000002560015INP    
0615330000BRB0170402          19910131BRP500000000000290652INP    
0615330000BR81260810          19810930BRP500000000001899568INP    
0615330000BR82200705          19820930BRP500000000001981639INP    
0615330000BR92300612          19821031BRP500000000001530330INP    
0615330000BR71281209          19810831BRP500000000001968595INP    
0615330000BRB1171101          19820131BRP500000000002405388INP    
0615330000BR41261203          19810531BRP500000000002450336INP    
0615330000BR41060906          19810531BRP500000000002247476INP    
0615330000BR81241008          19810930BRP500000000002011200INP    
0615330000BR81090406          19810930BRP500000000002174614INP    
0615330000BR71271009          19810831BRP500000000001979096INP    
0615330000BR63031003          19830731BRP500000000001618339INP    
0615330000BR71170902          19810831BRP500000000002465212INP    
0615330000BR81070902          19810930BRP500000000002432329INP    
0615330000BR61020912          19810731BRP500000000001828725INP    
0615330000BR72201105          19820831BRP500000000002030778INP    
0615330000BR51060303          19810630BRP500000000002467761INP    
0615330000BR71271208          19810831BRP500000000002030877INP    
0615330000BR55130505          19850630BRP500000000000916978INP    
0615330000BR62121003          19820731BRP500000000002223712INP    
0615330000BR81300506          19810930BRP500000000002167505INP    
0615330000BR61261204          19810731BRP500000000002322512INP    
0615330000BR71150308          19810831BRP500000000002078439INP    
0615330000BR61050805          19810731BRP500000000002276699INP    
0615330000BR51030402          19810630BRP500000000002531771INP    
0615330000BR41240503          19810531BRP500000000002495062INP    
0615330000BRB2290801          19830131BRP500000000001933096INP    
0615330000BR51060501          19810630BRP500000000002604948INP    
0615330000BR7C230308          19930831BRP500000000000154981INP    
0615330000BR71090405          19810831BRP500000000002277443INP    
0615330000BR71121001          19810831BRP500000000002532442INP    
0615330000BR61290804          19810731BRP500000000002345012INP    
0615330000BR51150906          19810630BRP500000000002206977INP    
0615330000BR42270203          19820531BRP500000000002287978INP    
0615330000BR04160711          19841130BRP500000000000896432INP    
0615330000BE1E210905          19950228BRP500000000000135526INP    
0615330000BR51031202          19810630BRP500000000002487410INP    
0615330000BR41060611          19810531BRP500000000001939410INP    
0615330000BR41020408          19810531BRP500000000002141279INP    
0615330000BR41011112          19810531BRP500000000001857776INP    
0615330000BR61161110          19810731BRP500000000001929602INP    
0615330000BR51160811          19810630BRP500000000001894434INP    
0615330000BR51060909          19810630BRP500000000002012848INP    
0615330000BR51021002          19810630BRP500000000002500463INP    
0615330000BR52120905          19820630BRP500000000002112463INP    
0615330000BR41010606          19810531BRP500000000002267042INP    
0615330000BR41161110          19810531BRP500000000001969895INP    
0615330000BR41090413          19810531BRP500000000001831421INP    
0615330000BR61291106          19810731BRP500000000002187790INP    
0615330000BR71110105          19810831BRP500000000002293606INP    
0615330000BR81281205          19810930BRP500000000002195868INP    
0615330000BR61090511          19810731BRP500000000001904109INP    
0615330000BRA4100812          19841231BRP500000000000854881INP    
0615330000BRA6200605          19861231BRP500000000000665143INP    
0615330000BR71100705          19810831BRP500000000002259442INP    
0615330000BR91250914          19811031BRP500000000001656183INP    
0615330000BRB2290905          19830131BRP500000000001705738INP    
0615330000BR92060302          19821031BRP500000000002102037INP    
0615330000BR61161201          19810731BRP500000000002541222INP    
0615330000BR81031102          19810930BRP500000000002421840INP    
0615330000BR6A060401          19910731BRP500000000000272653INP    
0615330000BRAA230709          19911231BRP500000000000191123INP    
0615330000BR71121206          19810831BRP500000000002161783INP    
0615330000BRA6050407          19861231BRP500000000000630243INP    
0615330000BR61090311          19810731BRP500000000001913058INP    
0615330000BR61270708          19810731BRP500000000002076757INP    
0615330000BRA7051008          19871231BRP500000000000470325INP    
0615330000BRAA080103          19911231BRP500000000000234776INP    
0615330000BR75010303          19850831BRP500000000000931192INP    
0615330000BRA4130208          19841231BRP500000000000982079INP    
0615330000BR91040813          19811031BRP500000000001712242INP    
0615330000BR01190307          19811130BRP500000000002070020INP    
0615330000BR41261107          19810531BRP500000000002166250INP    
0615330000BR41180307          19810531BRP500000000002208073INP    
0615330000BRB1021008          19820131BRP500000000001949091INP    
0615330000BR82041011          19820930BRP500000000001637269INP    
0615330000BRB0081103          19910131BRP500000000000278198INP    
0615330000BR91190501          19811031BRP500000000002492964INP    
0615330000BR64240503          19840731BRP500000000001321480INP    
0615330000BR61251104          19810731BRP500000000002328713INP    
0615330000BR51280502          19810630BRP500000000002521082INP    
0615330000BR81060910          19810930BRP500000000001895555INP    
0615330000BR61251013          19810731BRP500000000001766770INP    
0615330000BR71180805          19810831BRP500000000002249824INP    
0615330000BR61170605          19810731BRP500000000002283482INP    
0615330000BR82130203          19820930BRP500000000002140612INP    
0615330000BR7E110501          19950831BRP500000000000146313INP    
0615330000BR51250407          19810630BRP500000000002170381INP    
0615330000BR60280908          19900731BRP500000000000278892INP    
0615330000BR44280507          19840531BRP500000000001201499INP    
0615330000BR51261201          19810630BRP500000000002555370INP    
0615330000BR44230607          19840531BRP500000000001195515INP    
0615330000BR6A021201          19910731BRP500000000000267130INP    
0615330000BR5A270110          19910630BRP500000000000212334INP    
0615330000BR61130708          19810731BRP500000000002075680INP    
0615330000BR41130204          19810531BRP500000000002430639INP    
0615330000BR61070612          19810731BRP500000000001841491INP    
0615330000BR51130811          19810630BRP500000000001895526INP    
0615330000BR51240104          19810630BRP500000000002404999INP    
0615330000BR41210510          19810531BRP500000000002005445INP    
0615330000BR22041207          19820331BRP500000000001989753INP    
0615330000BR81270302          19810930BRP500000000002462787INP    
0615330000BR51300411          19810630BRP500000000001915370INP    
0615330000BR71300405          19810831BRP500000000002275669INP    
0615330000BR61100606          19810731BRP500000000002217167INP    
0615330000BR61070104          19810731BRP500000000002394838INP    
0615330000BR41110512          19810531BRP500000000001883385INP    
0615330000BR81031008          19810930BRP500000000002012628INP    
0615330000BR62110102          19820731BRP500000000002339766INP    
0615330000BR51101011          19810630BRP500000000001886976INP    
0615330000BR43210504          19830531BRP500000000001643746INP    
0615330000BR72100710          19820831BRP500000000001759969INP    
0615330000BR41020803          19810531BRP500000000002478420INP    
0615330000BR51151003          19810630BRP500000000002419783INP    
0615330000BR41140505          19810531BRP500000000002338561INP    
0615330000BR82221104          19820930BRP500000000002021345INP    
0615330000BR82170102          19820930BRP500000000002205433INP    
0615330000BR51100106          19810630BRP500000000002255030INP    
0615330000BR41140109          19810531BRP500000000002085655INP    
0615330000BR61081110          19810731BRP500000000001932572INP    
0615330000BR45190502          19850531BRP500000000001026708INP    
0615330000BR51270208          19810630BRP500000000002113831INP    
0615330000BR51270104          19810630BRP500000000002403625INP    
0615330000BR81290504          19810930BRP500000000002305799INP    
0615330000BR51210112          19810630BRP500000000001874424INP    
0615330000BR51260604          19810630BRP500000000002368330INP    
0615330000BR51180213          19810630BRP500000000001813168INP    
0615330000BR51031104          19810630BRP500000000002340760INP    
0615330000BR42200105          19820531BRP500000000002156221INP    
0615330000BR41280402          19810531BRP500000000002569383INP    
0615330000BR41051106          19810531BRP500000000002236406INP    
0615330000BR01090712          19811130BRP500000000001757740INP    
0615330000BR51220312          19810630BRP500000000001864653INP    
0615330000BR41050203          19810531BRP500000000002514281INP    
0615330000BR41301110          19810531BRP500000000001971041INP    
0615330000BR41041008          19810531BRP500000000002106176INP    
0615330000BRA1020311          19811231BRP500000000001824198INP    
0615330000BR75271201          19850831BRP500000000000963105INP    
0615330000BRB3210801          19840131BRP500000000001507469INP    
0615330000BR75171001          19850831BRP500000000000966842INP    
0615330000BR75080505          19850831BRP500000000000868320INP    
0615330000BRA1250709          19811231BRP500000000001918596INP    
0615330000BRB1080203          19820131BRP500000000002324143INP    
0615330000BR92310516          19821031BRP500000000001357264INP    
0615330000BR61251213          19810731BRP500000000001759639INP    
0615330000BR61030402          19810731BRP500000000002521215INP    
0615330000BRA5311001          19851231BRP500000000000906690INP    
0615330000BR61170902          19810731BRP500000000002488734INP    
0615330000BR84050207          19840930BRP500000000001153994INP    
0615330000BR81201004          19810930BRP500000000002272065INP    
0615330000BR71180503          19810831BRP500000000002416445INP    
0615330000BR61140105          19810731BRP500000000002314057INP    
0615330000BR71130202          19810831BRP500000000002505032INP    
0615330000BR62060312          19820731BRP500000000001712390INP    
0615330000BR51240808          19810630BRP500000000002081327INP    
0615330000BR41181109          19810531BRP500000000002031046INP    
0615330000BR74081202          19840831BRP500000000001321735INP    
0615330000BRA1270905          19811231BRP500000000002160692INP    
0615330000BR74160505          19840831BRP500000000001223289INP    
0615330000BRB1080701          19820131BRP500000000002435908INP    
0615330000BR91050803          19811031BRP500000000002337693INP    
0615330000BR81010714          19810930BRP500000000001688376INP    
0615330000BR51181201          19810630BRP500000000002550980INP    
0615330000BR71120810          19810831BRP500000000001927920INP    
0615330000BR51210506          19810630BRP500000000002234967INP    
0615330000BR61061106          19810731BRP500000000002190241INP    
0615330000BR51181102          19810630BRP500000000002486350INP    
0615330000BR91200904          19811031BRP500000000002257003INP    
0615330000BR44060202          19840531BRP500000000001412171INP    
0615330000BR81210908          19810930BRP500000000002017277INP    
0615330000BR81210514          19810930BRP500000000001696206INP    
0615330000BR71020706          19810831BRP500000000002194247INP    
0615330000BR51300706          19810630BRP500000000002219603INP    
0615330000BR51130911          19810630BRP500000000001890530INP    
0615330000BR41300904          19810531BRP500000000002387276INP    
0615330000BR61090307          19810731BRP500000000002166835INP    
0615330000BR41220316          19810531BRP500000000001676850INP    
0615330000BR41180907          19810531BRP500000000002173625INP    
0615330000BR01231202          19811130BRP500000000002361487INP    
0615330000BR51310512          19810630BRP500000000001851651INP    
0615330000BR41300102          19810531BRP500000000002588464INP    
0615330000BR51191103          19810630BRP500000000002411633INP    
0615330000BR41110704          19810531BRP500000000002400756INP    
0615330000BR41290113          19810531BRP500000000001844243INP    
0615330000BR12190402          19820228BRP500000000002349136INP    
0615330000BR91090605          19811031BRP500000000002203443INP    
0615330000BRAA200804          19911231BRP500000000000222794INP    
0615330000BRA7100709          19871231BRP500000000000459179INP    
0615330000BR81120707          19810930BRP500000000002090626INP    
0615330000BR51101207          19810630BRP500000000002125241INP    
0615330000BR81050807          19810930BRP500000000002087747INP    
0615330000BR61190303          19810731BRP500000000002451366INP    
0615330000BR72170714          19820831BRP500000000001555476INP    
0615330000BR51190203          19810630BRP500000000002466788INP    
0615330000BR91071206          19811031BRP500000000002104225INP    
0615330000BRB1060402          19820131BRP500000000002379347INP    
0615330000BRA3300504          19831231BRP500000000001401794INP    
0615330000BRB1050803          19820131BRP500000000002291578INP    
0615330000BR61271007          19810731BRP500000000002127227INP    
0615330000BR81081203          19810930BRP500000000002341647INP    
0615330000BR61030506          19810731BRP500000000002226193INP    
0615330000BR71111105          19810831BRP500000000002235392INP    
0615330000BR82090801          19820930BRP500000000002238515INP    
0615330000BR81130907          19810930BRP500000000002078853INP    
0615330000BRB5170408          19860131BRP500000000000730395INP    
0615330000BRB4040411          19850131BRP500000000000877211INP    
0615330000BR75130502          19850831BRP500000000000950155INP    
0615330000BR41181014          19810531BRP500000000001747412INP    
0615330000BR61061004          19810731BRP500000000002335703INP    
0615330000BR51051011          19810630BRP500000000001888789INP    
0615330000BRA1240701          19811231BRP500000000002456947INP    
0615330000BR81201201          19810930BRP500000000002476820INP    
0615330000BR81190905          19810930BRP500000000002216205INP    
0615330000BR51210406          19810630BRP500000000002240646INP    
0615330000BR74120503          19840831BRP500000000001304449INP    
0615330000BRB3171108          19840131BRP500000000001205803INP    
0615330000BRB1050904          19820131BRP500000000002211795INP    
0615330000BR81210306          19810930BRP500000000002175427INP    
0615330000BR51130505          19810630BRP500000000002301029INP    
0615330000BR73071011          19830831BRP500000000001232082INP    
0615330000BR71260905          19810831BRP500000000002247749INP    
0615330000BR9A161202          19911031BRP500000000000245681INP    
0615330000BR81210802          19810930BRP500000000002440220INP    
0615330000BR51240905          19810630BRP500000000002279693INP    
0615330000BR51011209          19810630BRP500000000001999507INP    
0615330000BR91191209          19811031BRP500000000001911351INP    
0615330000BR51200107          19810630BRP500000000002189488INP    
0615330000BR71250810          19810831BRP500000000001929291INP    
0615330000BR51190103          19810630BRP500000000002473318INP    
0615330000BR71121204          19810831BRP500000000002299264INP    
0615330000BR51291104          19810630BRP500000000002336768INP    
0615330000BR71060506          19810831BRP500000000002204073INP    
0615330000BR51200206          19810630BRP500000000002251976INP    
0615330000BR61040801          19810731BRP500000000002573911INP    
0615330000BR51191211          19810630BRP500000000001874057INP    
0615330000BR51290413          19810630BRP500000000001800563INP    
0615330000BR41250316          19810531BRP500000000001675885INP    
0615330000BR01300313          19811130BRP500000000001720660INP    
0615330000BR61160710          19810731BRP500000000001949946INP    
0615330000BRB2250304          19830131BRP500000000001782318INP    
0615330000BR61030702          19810731BRP500000000002508578INP    
0615330000BR81161210          19810930BRP500000000001877513INP    
0615330000BR71290304          19810831BRP500000000002353746INP    
0615330000BRB3101205          19840131BRP500000000001322692INP    
0615330000BR87150102          19870930BRP500000000000620836INP    
0615330000BRA1110801          19811231BRP500000000002448373INP    
0615330000BR92210902          19821031BRP500000000002075649INP    
0615330000BRAF241005          19961231BRP500000000000110069INP    
0615330000BR81300902          19810930BRP500000000002429481INP    
0615330000BR81270711          19810930BRP500000000001847392INP    
0615330000BR71061105          19810831BRP500000000002237538INP    
0615330000BR61110205          19810731BRP500000000002309199INP    
0615330000BR41300503          19810531BRP500000000002492212INP    
0615330000BR41261012          19810531BRP500000000001859919INP    
0615330000BRB1030803          19820131BRP500000000002292451INP    
0615330000BR41290413          19810531BRP500000000001830283INP    
0615330000BR91060702          19811031BRP500000000002415630INP    
0615330000BR71141102          19810831BRP500000000002454375INP    
0615330000BR71291004          19810831BRP500000000002311114INP    
0615330000BR61080103          19810731BRP500000000002468095INP    
0615330000BR71140907          19810831BRP500000000002110571INP    
0615330000BR51150713          19810630BRP500000000001785567INP    
0615330000BR62120205          19820731BRP500000000002129485INP    
0615330000BR55300706          19850630BRP500000000000884529INP    
0615330000BR41300913          19810531BRP500000000001806404INP    
0615330000BR81240713          19810930BRP500000000001737326INP    
0615330000BR61050504          19810731BRP500000000002366869INP    
0615330000BR71080501          19810831BRP500000000002568819INP    
0615330000BR61250701          19810731BRP500000000002578915INP    
0615330000BR61270702          19810731BRP500000000002505163INP    
0615330000BR51220408          19810630BRP500000000002105203INP    
0615330000BR51170907          19810630BRP500000000002138559INP    
0615330000BR41190114          19810531BRP500000000001793531INP    
0615330000BR41271108          19810531BRP500000000002098136INP    
0615330000BR41031106          19810531BRP500000000002237264INP    
0615330000BR41270311          19810531BRP500000000001953444INP    
0615330000BR41190210          19810531BRP500000000002021217INP    
0615330000BR52150102          19820630BRP500000000002361162INP    
0615330000BR14291108          19840229BRP500000000001202173INP    
0615330000BR89021109          19890930BRP500000000000337801INP    
0615330000BR51140111          19810630BRP500000000001928532INP    
0615330000BR72241213          19820831BRP500000000001586575INP    
0615330000BR4B180612          19920531BRP500000000000165745INP    
0615330000BRB1021108          19820131BRP500000000001943800INP    
0615330000BR81160604          19810930BRP500000000002297846INP    
0615330000BRB1010305          19820131BRP500000000002179971INP    
0615330000BR51070206          19810630BRP500000000002250273INP    
0615330000BRA1100510          19811231BRP500000000001869050INP    
0615330000BRB1130103          19820131BRP500000000002328199INP    
0615330000BR71240606          19810831BRP500000000002197619INP    
0615330000BRA1210501          19811231BRP500000000002463370INP    
0615330000BR81160907          19810930BRP500000000002077656INP    
0615330000BRA7010601          19871231BRP500000000000590461INP    
0615330000BR5D080306          19940630BRP500000000000144164INP    
0615330000BR5F301002          19960630BRP500000000000126999INP    
0615330000BR51221208          19810630BRP500000000002060795INP    
0615330000BR91040605          19811031BRP500000000002205558INP    
0615330000BR61121204          19810731BRP500000000002321127INP    
0615330000BR91010702          19811031BRP500000000002417932INP    
0615330000BR71100304          19810831BRP500000000002354652INP    
0615330000BR88180302          19880930BRP500000000000525279INP    
0615330000BR91201209          19811031BRP500000000001910984INP    
0615330000BR61150902          19810731BRP500000000002489683INP    
0615330000BR9A091003          19911031BRP500000000000239878INP    
0615330000BRA1230501          19811231BRP500000000002462413INP    
0615330000BR8B050501          19920930BRP500000000000221350INP    
0615330000BRA1201106          19811231BRP500000000002086893INP    
0615330000BR81311002          19810930BRP500000000002423224INP    
0615330000BR62230308          19820731BRP500000000001938540INP    
0615330000BR51210901          19810630BRP500000000002569432INP    
0615330000BR51110106          19810630BRP500000000002254597INP    
0615330000BR81081002          19810930BRP500000000002425780INP    
0615330000BR71190414          19810831BRP500000000001721862INP    
0615330000BRAB050206          19921231BRP500000000000179865INP    
0615330000BR81230306          19810930BRP500000000002181722INP    
0615330000BR61210506          19810731BRP500000000002225695INP    
0615330000BR91290801          19811031BRP500000000002476010INP    
0615330000BR91250404          19811031BRP500000000002284712INP    
0615330000BR92071202          19821031BRP500000000002058837INP    
0615330000BR51070510          19810630BRP500000000001971858INP    
0615330000BR81190210          19810930BRP500000000001925156INP    
0615330000BR71070806          19810831BRP500000000002186166INP    
0615330000BR91190305          19811031BRP500000000002216526INP    
0615330000BRB3260205          19840131BRP500000000001356995INP    
0615330000BR81300603          19810930BRP500000000002375535INP    
0615330000BR82151001          19820930BRP500000000002223829INP    
0615330000BR62090215          19820731BRP500000000001565022INP    
0615330000BR51191201          19810630BRP500000000002550485INP    
0615330000BR41280203          19810531BRP500000000002511415INP    
0615330000BR51140309          19810630BRP500000000002041819INP    
0615330000BR41121012          19810531BRP500000000001858814INP    
0615330000BR41030916          19810531BRP500000000001651416INP    
0615330000BR01301201          19811130BRP500000000002433510INP    
0615330000BR51101001          19810630BRP500000000002568444INP    
0615330000BR81010307          19810930BRP500000000002116949INP    
0615330000BR71100506          19810831BRP500000000002202382INP    
0615330000BR71041002          19810831BRP500000000002465431INP    
0615330000BR61050703          19810731BRP500000000002432730INP    
0615330000BR41260813          19810531BRP500000000001812610INP    
0615330000BR41241213          19810531BRP500000000001796650INP    
0615330000BR74290814          19840831BRP500000000000919956INP    
0615330000BR51150809          19810630BRP500000000002014687INP    
0615330000BR51170808          19810630BRP500000000002077229INP    
0615330000BR51110402          19810630BRP500000000002527840INP    
0615330000BR71270802          19810831BRP500000000002475096INP    
0615330000BR63300704          19830731BRP500000000001575229INP    
0615330000BR6C021202          19930731BRP500000000000185686INP    
0615330000BR51080203          19810630BRP500000000002471964INP    
0615330000BRB1090206          19820131BRP500000000002114897INP    
0615330000BR41190602          19810531BRP500000000002559165INP    
0615330000BR72200103          19820831BRP500000000002219845INP    
0615330000BR51050306          19810630BRP500000000002246364INP    
0615330000BR71040208          19810831BRP500000000002087622INP    
0615330000BR61101204          19810731BRP500000000002322018INP    
0615330000BRAA030906          19911231BRP500000000000209591INP    
0615330000BR71170510          19810831BRP500000000001941529INP    
0615330000BR91300408          19811031BRP500000000002016695INP    
0615330000BR61080410          19810731BRP500000000001968245INP    
0615330000BRA5180901          19851231BRP500000000000908396INP    
0615330000BR42250807          19820531BRP500000000001989010INP    
0615330000BR83280713          19830930BRP500000000001132076INP    
0615330000BR71170705          19810831BRP500000000002256408INP    
0615330000BR51061204          19810630BRP500000000002333631INP    
0615330000BR91191009          19811031BRP500000000001927474INP    
0615330000BR7G080303          19970831BRP500000000000112790INP    
0615330000BRB1040804          19820131BRP500000000002218174INP    
0615330000BR91060706          19811031BRP500000000002132459INP    
0615330000BRA1271011          19811231BRP500000000001789441INP    
0615330000BR81270406          19810930BRP500000000002174196INP    
0615330000BR71260307          19810831BRP500000000002146491INP    
0615330000BRB1020102          19820131BRP500000000002399424INP    
0615330000BR61011106          19810731BRP500000000002192344INP    
0615330000BR71130708          19810831BRP500000000002056283INP    
0615330000BR72181110          19820831BRP500000000001738782INP    
0615330000BR66261212          19860731BRP500000000000570365INP    
0615330000BRB1170808          19820131BRP500000000001953637INP    
0615330000BR61180115          19810731BRP500000000001698384INP    
0615330000BRA1040108          19811231BRP500000000002012002INP    
0615330000BR91050508          19811031BRP500000000002014759INP    
0615330000BR71240109          19810831BRP500000000002026619INP    
0615330000BR61140207          19810731BRP500000000002169338INP    
0615330000BRA7280602          19871231BRP500000000000572607INP    
0615330000BR86150704          19860930BRP500000000000722932INP    
0615330000BRA5110807          19851231BRP500000000000758542INP    
0615330000BR81270109          19810930BRP500000000001994482INP    
0615330000BR14250110          19840229BRP500000000001160288INP    
0615330000BR61240905          19810731BRP500000000002270042INP    
0615330000BR51090206          19810630BRP500000000002249409INP    
0615330000BR51220905          19810630BRP500000000002280511INP    
0615330000BR4B011203          19920531BRP500000000000216849INP    
0615330000BRA4121205          19841231BRP500000000001050674INP    
0615330000BR51070409          19810630BRP500000000002039018INP    
0615330000BR81140502          19810930BRP500000000002447907INP    
0615330000BR71241104          19810831BRP500000000002307222INP    
0615330000BR82010611          19820930BRP500000000001655565INP    
0615330000BR81171007          19810930BRP500000000002071965INP    
0615330000BR81070607          19810930BRP500000000002097914INP    
0615330000BR77120211          19870831BRP500000000000477571INP    
0615330000BR91081101          19811031BRP500000000002457855INP    
0615330000BRB1040708          19820131BRP500000000001963795INP    
0615330000BR88081014          19880930BRP500000000000357306INP    
0615330000BRB1190805          19820131BRP500000000002144618INP    
0615330000BRA1040802          19811231BRP500000000002382586INP    
0615330000BR81280504          19810930BRP500000000002306242INP    
0615330000BR51010507          19810630BRP500000000002167882INP    
0615330000BRA1030903          19811231BRP500000000002305740INP    
0615330000BR81170603          19810930BRP500000000002373719INP    
0615330000BRAF180306          19961231BRP500000000000108807INP    
0615330000BRA5050805          19851231BRP500000000000807924INP    
0615330000BR81261013          19810930BRP500000000001722964INP    
0615330000BR61060112          19810731BRP500000000001865838INP    
0615330000BR41170901          19810531BRP500000000002614095INP    
0615330000BRA5140704          19851231BRP500000000000834032INP    
0615330000BR76280812          19860831BRP500000000000568452INP    
0615330000BRA1240404          19811231BRP500000000002258900INP    
0615330000BR91290903          19811031BRP500000000002328297INP    
0615330000BR91040804          19811031BRP500000000002262812INP    
0615330000BR71290701          19810831BRP500000000002552856INP    
0615330000BR71010605          19810831BRP500000000002269077INP    
0615330000BR61280508          19810731BRP500000000002088741INP    
0615330000BR81140203          19810930BRP500000000002398445INP    
0615330000BR51210705          19810630BRP500000000002285403INP    
0615330000BR71050209          19810831BRP500000000002021948INP    
0615330000BR61120210          19810731BRP500000000001976252INP    
0615330000BR12181102          19820228BRP500000000002314363INP    
0615330000BR02140902          19821130BRP500000000001970507INP    
0615330000BR12171208          19820228BRP500000000001913733INP    
0615330000BR01230703          19811130BRP500000000002328484INP    
0615330000BR01130306          19811130BRP500000000002137848INP    
0615330000AE67160705          19870731BRP500000000000579261INP    
0615330000BR01121006          19811130BRP500000000002099618INP    
0615330000BR01120411          19811130BRP500000000001826158INP    
0615330000BRA2200904          19821231BRP500000000001782648INP    
0615330000BRA2171201          19821231BRP500000000001939168INP    
0615330000BR52221209          19820630BRP500000000001853319INP    
0615330000BR41281215          19810531BRP500000000001687933INP    
0615330000BR41200307          19810531BRP500000000002207225INP    
0615330000BR25040507          19850331BRP500000000000935323INP    
0615330000BR41200114          19810531BRP500000000001793187INP    
0615330000BR24200603          19840331BRP500000000001420640INP    
0615330000BR41081201          19810531BRP500000000002598265INP    
0615330000BR1C120504          19930228BRP500000000000187990INP    
0615330000BR41290111          19810531BRP500000000001961169INP    
0615330000BR41281205          19810531BRP500000000002298075INP    
0615330000BR41010702          19810531BRP500000000002561832INP    
0615330000BR32220702          19820430BRP500000000002329541INP    
0615330000BR41230313          19810531BRP500000000001837413INP    
0615330000BR41061203          19810531BRP500000000002451679INP    
0615330000BR41040302          19810531BRP500000000002580276INP    
0615330000BR23101210          19830331BRP500000000001413313INP    
0615330000BR52150807          19820630BRP500000000001989720INP    
0615330000BR41021011          19810531BRP500000000001921215INP    
0615330000BR41281004          19810531BRP500000000002382290INP    
0615330000BR41221109          19810531BRP500000000002036139INP    
0615330000BR41221204          19810531BRP500000000002372728INP    
0615330000BR41050710          19810531BRP500000000001994796INP    
0615330000BR41200210          19810531BRP500000000002020829INP    
0615330000BR24260211          19840331BRP500000000001119793INP    
0615330000BR51231007          19810630BRP500000000002137890INP    
0615330000BR51061105          19810630BRP500000000002268417INP    
0615330000BR51061201          19810630BRP500000000002556933INP    
0615330000BR41100901          19810531BRP500000000002617652INP    
0615330000BR51230909          19810630BRP500000000002012923INP    
0615330000BR09210605          19891130BRP500000000000365260INP    
0615330000BR22220909          19820331BRP500000000001882909INP    
0615330000BR22211009          19820331BRP500000000001878559INP    
0615330000BR71210308          19810831BRP500000000002076045INP    
0615330000BRB1301203          19820131BRP500000000002264697INP    
0615330000BR91100506          19811031BRP500000000002141918INP    
0615330000BRBA130102          19920131BRP500000000000237515INP    
0615330000BRB1300706          19820131BRP500000000002087540INP    
0615330000BR71190913          19810831BRP500000000001750586INP    
0615330000BR81021004          19810930BRP500000000002279929INP    
0615330000BRA1090308          19811231BRP500000000002000290INP    
0615330000BR97251003          19871031BRP500000000000578002INP    
0615330000BR61221202          19810731BRP500000000002467983INP    
0615330000BR32170902          19820430BRP500000000002319640INP    
0615330000BR92131102          19821031BRP500000000002061402INP    
0615330000BR71210508          19810831BRP500000000002071983INP    
0615330000BR81020704          19810930BRP500000000002298237INP    
0615330000BR91100712          19811031BRP500000000001768746INP    
0615330000BRA1190206          19811231BRP500000000002128859INP    
0615330000BR81230503          19810930BRP500000000002385053INP    
0615330000BR82270805          19820930BRP500000000001979970INP    
0615330000BR52060806          19820630BRP500000000002056131INP    
0615330000BR16021008          19860228BRP500000000000699677INP    
0615330000BR52140416          19820630BRP500000000001523427INP    
0615330000BR51030308          19810630BRP500000000002111802INP    
0615330000BR91270504          19811031BRP500000000002278141INP    
0615330000BR91080814          19811031BRP500000000001660760INP    
0615330000BR61290303          19810731BRP500000000002454670INP    
0615330000BR51301006          19810630BRP500000000002202487INP    
0615330000BR91180102          19811031BRP500000000002440355INP    
0615330000BR84230904          19840930BRP500000000001243338INP    
0615330000BR71140311          19810831BRP500000000001893279INP    
0615330000BR82060303          19820930BRP500000000002139078INP    
0615330000BR51100905          19810630BRP500000000002278226INP    
0615330000BR52111105          19820630BRP500000000002102156INP    
0615330000BR91020502          19811031BRP500000000002423232INP    
0615330000BRB1140206          19820131BRP500000000002112869INP    
0615330000BRA1261111          19811231BRP500000000001784896INP    
0615330000BR91150106          19811031BRP500000000002161100INP    
0615330000BR61200313          19810731BRP500000000001801059INP    
0615330000BR61150802          19810731BRP500000000002496111INP    
0615330000BR61210402          19810731BRP500000000002512416INP    
0615330000BR93130111          19831031BRP500000000001190020INP    
0615330000BR81100103          19810930BRP500000000002406550INP    
0615330000BR91271209          19811031BRP500000000001914754INP    
0615330000BRB1151102          19820131BRP500000000002339376INP    
0615330000BR81021114          19810930BRP500000000001670228INP    
0615330000BR61121102          19810731BRP500000000002478683INP    
0615330000BR61120907          19810731BRP500000000002131527INP    
0615330000BR91280207          19811031BRP500000000002091088INP    
0615330000BRA1310103          19811231BRP500000000002347557INP    
0615330000BR91120702          19811031BRP500000000002412870INP    
0615330000BR61191008          19810731BRP500000000002057110INP    
0615330000BRB2200805          19830131BRP500000000001707681INP    
0615330000BRA1221204          19811231BRP500000000002213113INP    
0615330000BR91270912          19811031BRP500000000001759072INP    
0615330000BR91270709          19811031BRP500000000001940021INP    
0615330000BR41291009          19810531BRP500000000002038871INP    
0615330000BR15270508          19850228BRP500000000000926981INP    
0615330000BR91090510          19811031BRP500000000001891133INP    
0615330000BR51120404          19810630BRP500000000002379570INP    
0615330000BR7B050404          19920831BRP500000000000205986INP    
0615330000BR71140510          19810831BRP500000000001942649INP    
0615330000BR71300712          19810831BRP500000000001817469INP    
0615330000BR51301103          19810630BRP500000000002414501INP    
0615330000BR62150909          19820731BRP500000000001845478INP    
0615330000BR52051102          19820630BRP500000000002312048INP    
0615330000BR61151204          19810731BRP500000000002319790INP    
0615330000BR81141203          19810930BRP500000000002338972INP    
0615330000BR62260809          19820731BRP500000000001852588INP    
0615330000BRB1100208          19820131BRP500000000001987451INP    
0615330000BR93081110          19831031BRP500000000001197235INP    
0615330000BR83170905          19830930BRP500000000001441154INP    
0615330000BR85110609          19850930BRP500000000000754921INP    
0615330000BR61241005          19810731BRP500000000002264482INP    
0615330000BRB5290606          19860131BRP500000000000774036INP    
0615330000BRA9280809          19891231BRP500000000000314944INP    
0615330000BR61151004          19810731BRP500000000002331672INP    
0615330000BR91040212          19811031BRP500000000001793319INP    
0615330000BRB1101004          19820131BRP500000000002204141INP    
0615330000BRB1230911          19820131BRP500000000001780318INP    
0615330000BR71021202          19810831BRP500000000002454071INP    
0615330000BRA1021101          19811231BRP500000000002432762INP    
0615330000BR61090102          19810731BRP500000000002537725INP    
0615330000BR61090203          19810731BRP500000000002461136INP    
