0769209298TRANSMISORA DEL PACIFICO S.A.                     000000058851201810082020040800548C001300000004000000000009990000281600000000000070400000070400000300000000000000000                                                      
0769209298TRANSMISORA DEL PACIFICO S.A.                     000000058852201810082020040800548C001300000004000000000009990000264000000000000066000000066000000400000000000000000                                                      
0769209298TRANSMISORA DEL PACIFICO S.A.                     000000058861201810082020090900702C001300000004000000000009990000282000000000000070500000070500000300000000000000000                                                      
0769209298TRANSMISORA DEL PACIFICO S.A.                     000000058862201810082020090900702C001300000004000000000009990000264000000000000066000000066000000400000000000000000                                                      
0769209298TRANSMISORA DEL PACIFICO S.A.                     000000058871201810082020100700730C001300000004000000000009990000291600000000000072900000072900000300000000000000000                                                      
0769209298TRANSMISORA DEL PACIFICO S.A.                     000000058872201810082020100700730C001300000004000000000009990000264000000000000066000000066000000400000000000000000                                                      
0965910409EMPRESAS CAROZZI S A                              000000061301201903222020063000466C001300000001700000000009990000115370500000000067865000067865000303100000000000000                                                      
0965910409EMPRESAS CAROZZI S A                              000000061302201903222020063000466C001300000001700000000009990000115370500000000067865000067865000403100000000000000                                                      
0965910409EMPRESAS CAROZZI S A                              000000061311201903222020093000558C001300000000425000000009990000028810750000000067790000067790000303100000000000000                                                      
0965910409EMPRESAS CAROZZI S A                              000000061312201903222020093000558C001300000000425000000009990000028810750000000067790000067790000403100000000000000                                                      
0891640005AGROINDUSTRIAL SURFRUT LTDA.                      000000061431201903282020032700365C001300000000924742000009990000067043795000000072500000072500000300000000000000000                                                      
0891640005AGROINDUSTRIAL SURFRUT LTDA.                      000000061432201903282020032700365C001300000000924742000009990000060108230000000065000000065000000400000000000000000                                                      
0968777602MULTIFRUTA S.A.                                   000000061521201904082020051200400C0013000000018000000000099900001251000000000000695000000695000003000-0000175317681                                                      
0776065501SOCIEDAD DE TURISMO RIO SERRANO S.A               000000061931201904302020060300400C099900004739000000000000130000000700000000000067700000067700000403900000000000000                                                      
0965910409EMPRESAS CAROZZI S A                              000000061911201904302020063000427C001300000002400000000009990000163452000000000068105000068105000303100000000000000                                                      
0965910409EMPRESAS CAROZZI S A                              000000061912201904302020063000427C001300000002400000000009990000163452000000000068105000068105000403100000000000000                                                      
0965910409EMPRESAS CAROZZI S A                              000000062131201905132020033100323C001300000002560000000009990000176844800000000069080000069080000303100000000000000                                                      
0965910409EMPRESAS CAROZZI S A                              000000062132201905132020033100323C001300000002560000000009990000176844800000000069080000069080000403100000000000000                                                      
0965910409EMPRESAS CAROZZI S A                              000000062141201905132020063000414C001300000002175000000009990000150292500000000069100000069100000303100000000000000                                                      
0965910409EMPRESAS CAROZZI S A                              000000062142201905132020063000414C001300000002175000000009990000150292500000000069100000069100000403100000000000000                                                      
078838940KEXPORTADORA E INVERSIONES AGROBERRIES S.A.        000000062361201905232020052200365E099900000700000000000000130000000100000000000070000000070000000400000000000000000                                                      
0965910409EMPRESAS CAROZZI S A                              000000062391201905232020063000404C001300000002080000000009990000145454400000000069930000069930000303100000000000000                                                      
0965910409EMPRESAS CAROZZI S A                              000000062392201905232020063000404C001300000002080000000009990000145454400000000069930000069930000403100000000000000                                                      
0965910409EMPRESAS CAROZZI S A                              000000062401201905232020093000496C001300000000400000000009990000028016000000000070040000070040000303100000000000000                                                      
0965910409EMPRESAS CAROZZI S A                              000000062402201905232020093000496C001300000000400000000009990000028016000000000070040000070040000403100000000000000                                                      
0784130002TURISMO LAGO GREY S A                             000000062411201905272020033100309E099900000346625000000000130000000050000000000069325000069325000400000000000000000                                                      
0762043807AGRICOLA FRUTICOLA Y FORESTAL HIGUERA ORIENTE LTDA000000062561201905282020042200330E099900000141240000000000130000000020000000000070620000070620000405100000000000000                                                      
0766361900AGRICOLA E INVERSIONES ALTO LOS OLMOS             000000062521201905282020052700365E099900000281920000000000130000000040000000000070480000070480000407200000000000000                                                      
0880432001FRUTERA LINDEROS LIMITADA                         000000062551201905282020052700365E099900000353000000000000130000000050000000000070600000070600000400000000000000000                                                      
078838940KEXPORTADORA E INVERSIONES AGROBERRIES S.A.        000000062501201905282020052700365E099900000706000000000000130000000100000000000070600000070600000400000000000000000                                                      
0891640005AGROINDUSTRIAL SURFRUT LTDA.                      000000062661201905302020043000336C001300000000963123000009990000073486284900000076300000076300000300000000000000000                                                      
0891640005AGROINDUSTRIAL SURFRUT LTDA.                      000000062662201905302020043000336C001300000000963123000009990000064529241000000067000000067000000400000000000000000                                                      
078838940KEXPORTADORA E INVERSIONES AGROBERRIES S.A.        000000062641201905302020052500361E099900000709000000000000130000000100000000000070900000070900000400000000000000000                                                      
0891640005AGROINDUSTRIAL SURFRUT LTDA.                      000000062671201905302020052900365C001300000002708913000009990000206690061900000076300000076300000300000000000000000                                                      
0891640005AGROINDUSTRIAL SURFRUT LTDA.                      000000062672201905302020052900365C001300000002708913000009990000181497171000000067000000067000000400000000000000000                                                      
0760908541PUREFRUIT CHILE S.A                               000000062721201905312020032700301C001300000000407139000009990000031064705700000076300000076300000300000000000000000                                                      
0760908541PUREFRUIT CHILE S.A                               000000062722201905312020032700301C001300000000407139000009990000027278313000000067000000067000000400000000000000000                                                      
0760908541PUREFRUIT CHILE S.A                               000000062731201905312020043000335C001300000000156343000009990000011928970900000076300000076300000300000000000000000                                                      
0760908541PUREFRUIT CHILE S.A                               000000062732201905312020043000335C001300000000156343000009990000010474981000000067000000067000000400000000000000000                                                      
0760908541PUREFRUIT CHILE S.A                               000000062741201905312020052900364C001300000000370546000009990000028272659800000076300000076300000300000000000000000                                                      
0760908541PUREFRUIT CHILE S.A                               000000062742201905312020052900364C001300000000370546000009990000024826582000000067000000067000000400000000000000000                                                      
0894702001FRUTICOLA Y EXPORTADORA ATACAMA LTDA.             000000063401201907192020071700364C0013000000020000000000099900001430000000000000715000000715000003011-0000214602492                                                      
0765156653SCALLOP CHILE S.A.                                000000063461201907232020071700360E099900002415000000000000130000000350000000000069000000069000000402200000000000000                                                      
0775223308GIDDINGS BERRIES CHILE S.A.                       000000063491201907242020041500266C099900001279992960000000130000000185700000000068928000068928000406100000000000000                                                      
0775223308GIDDINGS BERRIES CHILE S.A.                       000000063501201907242020063000342C099900004269477720000000130000000619600000000068907000068907000406100000000000000                                                      
0969123304INVERSIONES TECNO NET LTDA                        000000063471201907242020072000362E099900000690300000000000130000000100000000000069030000069030000400000000000000000                                                      
0760330981GLOBALFOLIO S.A.                                  000000063551201907252020033000249E099900000069210000000000130000000010000000000069210000069210000400000000000000000                                                      
0779296601AGRICOLA NUEVA SAN FRANCISCO LIMITADA             000000063571201907252020072000361E099900000069290000000000130000000010000000000069290000069290000400000000000000000                                                      
096566940KAGENCIAS UNIVERSALES S.A.                         000000063561201907262020052700306C001300000001500000000009990000109590000000000073060000073060000307200000000000000                                                      
096566940KAGENCIAS UNIVERSALES S.A.                         000000063562201907262020052700306C001300000001500000000009990000100500000000000067000000067000000407200000000000000                                                      
0995461803SOCIEDAD AGRICOLA CERRO CAMPANARIO SPA            000000063681201907292020033000245E001300000000100000000009990000007153000000000071530000071530000301400000000000000                                                      
0995461803SOCIEDAD AGRICOLA CERRO CAMPANARIO SPA            000000063682201907292020033000245E001300000000100000000009990000006800000000000068000000068000000401400000000000000                                                      
0052266092VALDES RUIZ JOSE HECTOR                           000000063711201907292020072300360E099900000139000000000000130000000020000000000069500000069500000407200000000000000                                                      
0052266092VALDES RUIZ JOSE HECTOR                           000000063721201907292020072300360E099900000191042500000000130000000027500000000069470000069470000407200000000000000                                                      
0763586804AGRICOLA A Y G BERRIES LIMITADA                   000000063751201907302020052500300E099900000209460000000000130000000030000000000069820000069820000400000000000000000                                                      
0760908541PUREFRUIT CHILE S.A                               000000063771201907302020063000336C001300000000228489000009990000017045279400000074600000074600000300000000000000000                                                      
0760908541PUREFRUIT CHILE S.A                               000000063772201907302020063000336C001300000000228489000009990000015308763000000067000000067000000400000000000000000                                                      
0760908541PUREFRUIT CHILE S.A                               000000063781201907302020072900365C001300000000538706000009990000040187467600000074600000074600000300000000000000000                                                      
0760908541PUREFRUIT CHILE S.A                               000000063782201907302020072900365C001300000000538706000009990000036093302000000067000000067000000400000000000000000                                                      
076052445KEXPORTADORA E IMPORTADORA FERNÁNDEZ ROMERO LTDA.  000000063801201907312020063000335E099900000321126000000000130000000046000000000069810000069810000400000000000000000                                                      
0761722050AGRICOLA Y COMERCIAL DOÑA PATRICIA LIMITADA       000000063831201907312020072400359E099900000251280000000000130000000036000000000069800000069800000400000000000000000                                                      
0775223308GIDDINGS BERRIES CHILE S.A.                       000000063871201908012020041500258C099900000793947420000000130000000113400000000070013000070013000406100000000000000                                                      
0775223308GIDDINGS BERRIES CHILE S.A.                       000000063861201908012020043000273C099900000840036000000000130000000120000000000070003000070003000406100000000000000                                                      
096566940KAGENCIAS UNIVERSALES S.A.                         000000063891201908012020062600330C001300000001500000000009990000112215000000000074810000074810000307200000000000000                                                      
096566940KAGENCIAS UNIVERSALES S.A.                         000000063892201908012020062600330C001300000001500000000009990000102000000000000068000000068000000407200000000000000                                                      
0775223308GIDDINGS BERRIES CHILE S.A.                       000000063881201908012020063000334C099900003737199000000000130000000534000000000069985000069985000406100000000000000                                                      
0779296601AGRICOLA NUEVA SAN FRANCISCO LIMITADA             000000063911201908012020072400358E099900000105270000000000130000000015000000000070180000070180000400000000000000000                                                      
0763586804AGRICOLA A Y G BERRIES LIMITADA                   000000064061201908022020050800280E099900000212100000000000130000000030000000000070700000070700000400000000000000000                                                      
0766361900AGRICOLA E INVERSIONES ALTO LOS OLMOS             000000063961201908022020073100364E099900000460330000000000130000000065000000000070820000070820000407200000000000000                                                      
078838940KEXPORTADORA E INVERSIONES AGROBERRIES S.A.        000000064101201908052020080400365C099900000719100000000000130000000100000000000071910000071910000400000000000000000                                                      
0966870907PRUNESCO SPA                                      000000064151201908052020080400365C099900002156100000000000130000000300000000000071870000071870000400000000000000000                                                      
0965910409EMPRESAS CAROZZI S A                              000000064311201908122020063000323C001300000000425000000009990000030345000000000071400000071400000303100000000000000                                                      
0965910409EMPRESAS CAROZZI S A                              000000064312201908122020063000323C001300000000425000000009990000030345000000000071400000071400000403100000000000000                                                      
0965910409EMPRESAS CAROZZI S A                              000000064302201908122020093000415C099900000303450000000000130000000042500000000071400000071400000403100000000000000                                                      
0965910409EMPRESAS CAROZZI S A                              000000064301201908122020093000415C099900000303450000000000130000000042500000000071400000071400000303100000000000000                                                      
0894702001FRUTICOLA Y EXPORTADORA ATACAMA LTDA.             000000064341201908162020070600325C0013000000029750000000099900002213400000000000744000000744000003011-0000281772964                                                      
0798676806AGRICOLA PEPPI SPA                                000000064371201908212020081400359C0013000000003000000000099900000226500000000000755000000755000003033-0000018145272                                                      
0761722050AGRICOLA Y COMERCIAL DOÑA PATRICIA LIMITADA       000000064391201908222020031900210E099900000319500000000000130000000045000000000071000000071000000400000000000000000                                                      
0966920408COMERCIALIZADORA LOS ROBLES LTDA.                 000000064453201908262020082500365C099900006600000000000000130000001000000000000066000000066000000400000000000000000                                                      
0966920408COMERCIALIZADORA LOS ROBLES LTDA.                 000000064451201908262020082500365C001300000010000000000009990000717900000000000071790000071790000300000000000000000                                                      
0966920408COMERCIALIZADORA LOS ROBLES LTDA.                 000000064452201908262020082500365C001300000010000000000009990000717900000000000071790000071790000400000000000000000                                                      
096566940KAGENCIAS UNIVERSALES S.A.                         000000064501201908272020072700335C001300000001500000000009990000115380000000000076920000076920000307200000000000000                                                      
096566940KAGENCIAS UNIVERSALES S.A.                         000000064502201908272020072700335C001300000001500000000009990000102750000000000068500000068500000407200000000000000                                                      
0809894002AGENCIA DE VIAJES TURAVION SPA                    000000065331201909242020031800176C001300000000500000000009990000037060000000000074120000074120000300000000000000000                                                      
0809894002AGENCIA DE VIAJES TURAVION SPA                    000000065332201909242020031800176C001300000000500000000009990000035000000000000070000000070000000400000000000000000                                                      
0969512602VIÑA EL VATICANO S.A.                             000000065381201909252020032300180E099900000005477689247000130000000000759419000072130000072130000400000000000000000                                                      
078838940KEXPORTADORA E INVERSIONES AGROBERRIES S.A.        000000065441201909262020032400180C099900000579240000000000130000000080000000000072405000072405000400000000000000000                                                      
0966920408COMERCIALIZADORA LOS ROBLES LTDA.                 000000065483201909262020092100361C099900003400000000000000130000000500000000000068000000068000000400000000000000000                                                      
0966920408COMERCIALIZADORA LOS ROBLES LTDA.                 000000065481201909262020092100361C001300000005000000000009990000362500000000000072500000072500000300000000000000000                                                      
0966920408COMERCIALIZADORA LOS ROBLES LTDA.                 000000065482201909262020092100361C001300000005000000000009990000362500000000000072500000072500000400000000000000000                                                      
000000000 HSBC BANK USA, N.A.                               000000065541201909272020082500333C099900011400000000000000130000001500000000000076000000076000000308100002715000000                                                      
0764437608AGRICOLA Y FRUTICOLA HUAQUEN LIMITADA             000000065721201910022020052900240E099900000216600000000000130000000030000000000072200000072200000400000000000000000                                                      
0765686806COLGRAM S.A.                                      000000065902201910032020040100181C099900000715500000000000130000000100000000000071550000071550000400000000000000000                                                      
0765686806COLGRAM S.A.                                      000000065903201910032020040100181C001300000001000000000009990000075500000000000075500000075500000300000000000000000                                                      
0765686806COLGRAM S.A.                                      000000065891201910032020040100181C001300000001000000000009990000068300000000000068300000068300000400000000000000000                                                      
0765686806COLGRAM S.A.                                      000000065901201910032020040100181C099900000715500000000000130000000100000000000071550000071550000300000000000000000                                                      
0764088166RIO BLANCO SPA                                    000000065881201910032020092800361C0013000000029000000000099900002192400000000000756000000756000003039-0000294023963                                                      
0801039006ALFOMBRAS BERCIA SOCIEDAD ANONIMA                 000000065981201910042020040100180E0999-000000000007187000013-000000000000010000071870000071870000300000000000000000                                                      
0995461803SOCIEDAD AGRICOLA CERRO CAMPANARIO SPA            000000065931201910042020043000209E001300000000100000000009990000007205000000000072050000072050000301400000000000000                                                      
0995461803SOCIEDAD AGRICOLA CERRO CAMPANARIO SPA            000000065932201910042020043000209E001300000000100000000009990000007000000000000070000000070000000401400000000000000                                                      
0995461803SOCIEDAD AGRICOLA CERRO CAMPANARIO SPA            000000065941201910042020052900238E001300000000100000000009990000007196000000000071960000071960000301400000000000000                                                      
0995461803SOCIEDAD AGRICOLA CERRO CAMPANARIO SPA            000000065942201910042020052900238E001300000000100000000009990000007000000000000070000000070000000401400000000000000                                                      
096615800KEXPORTADORA SUBSOLE S.A.                          000000066461201910102020040700180C0013000000003000000000099900000226500000000000755000000755000003011-0000013476098                                                      
0760707503A.A COMERCIAL LTDA.                               000000066642201910112020063000263C099900000371318000000000130000000053000000000070060000070060000406100000000000000                                                      
0760707503A.A COMERCIAL LTDA.                               000000066643201910112020063000263C001300000000530000000009990000039697000000000074900000074900000306100000000000000                                                      
0760707503A.A COMERCIAL LTDA.                               000000066641201910112020063000263C099900000371318000000000130000000053000000000070060000070060000306100000000000000                                                      
0764472039SERVICIOS COMERCIALES AGROFINE EXPORT SPA         000000066661201910142020100800360E099900000141000000000000130000000020000000000070500000070500000400000000000000000                                                      
0760908541PUREFRUIT CHILE S.A                               000000066761201910152020082800318C001300000000444773000009990000032477324460000073020000073020000300000000000000000                                                      
0891640005AGROINDUSTRIAL SURFRUT LTDA.                      000000066701201910152020082800318C001300000001174173000009990000085738112460000073020000073020000300000000000000000                                                      
0760908541PUREFRUIT CHILE S.A                               000000066762201910152020082800318C001300000000444773000009990000030911723500000069500000069500000400000000000000000                                                      
0891640005AGROINDUSTRIAL SURFRUT LTDA.                      000000066702201910152020082800318C001300000001174173000009990000081605023500000069500000069500000400000000000000000                                                      
0760908541PUREFRUIT CHILE S.A                               000000066781201910152020093000351C001300000000153619000009990000011217259380000073020000073020000300000000000000000                                                      
0891640005AGROINDUSTRIAL SURFRUT LTDA.                      000000066721201910152020093000351C001300000000835892000009990000061036833840000073020000073020000300000000000000000                                                      
0760908541PUREFRUIT CHILE S.A                               000000066782201910152020093000351C001300000000153619000009990000010676520500000069500000069500000400000000000000000                                                      
0891640005AGROINDUSTRIAL SURFRUT LTDA.                      000000066722201910152020093000351C001300000000835892000009990000058094494000000069500000069500000400000000000000000                                                      
080706200KPATRICIO OTERO F Y COMPANIA LIMITADA              000000066792201910162020031600152C099900000153542250000000130000000021500000000071415000071415000400000000000000000                                                      
080706200KPATRICIO OTERO F Y COMPANIA LIMITADA              000000066793201910162020031600152C001300000000215000000009990000016340000000000076000000076000000300000000000000000                                                      
080706200KPATRICIO OTERO F Y COMPANIA LIMITADA              000000066791201910162020031600152C099900000153542250000000130000000021500000000071415000071415000300000000000000000                                                      
0995461803SOCIEDAD AGRICOLA CERRO CAMPANARIO SPA            000000066851201910172020051500211E001300000000100000000009990000007154500000000071545000071545000301400000000000000                                                      
0995461803SOCIEDAD AGRICOLA CERRO CAMPANARIO SPA            000000066852201910172020051500211E001300000000100000000009990000007000000000000070000000070000000401400000000000000                                                      
0995461803SOCIEDAD AGRICOLA CERRO CAMPANARIO SPA            000000066861201910172020061500242E001300000000100000000009990000007148500000000071485000071485000301400000000000000                                                      
0995461803SOCIEDAD AGRICOLA CERRO CAMPANARIO SPA            000000066862201910172020061500242E001300000000100000000009990000007000000000000070000000070000000401400000000000000                                                      
0788937709RGM MALLAS DE ALAMBRE LTDA.                       000000066882201910182020032000154C099900000380207463640000130000000053917900000070516000070516000400000000000000000                                                      
0788937709RGM MALLAS DE ALAMBRE LTDA.                       000000066883201910182020032000154C001300000000539179000009990000039899246000000074000000074000000300000000000000000                                                      
0788937709RGM MALLAS DE ALAMBRE LTDA.                       000000066881201910182020032000154C099900000380207463640000130000000053917900000070516000070516000300000000000000000                                                      
0801039006ALFOMBRAS BERCIA SOCIEDAD ANONIMA                 000000066951201910182020041500180E099900000000000256500000130000000000000036000071250000071250000300000000000000000                                                      
0765177200ALVA SPA                                          000000067061201910212020042000182C099900000360250000000000130000000050000000000072050000072050000400000000000000000                                                      
0809894002AGENCIA DE VIAJES TURAVION SPA                    000000067271201910222020031800148C001300000000500000000009990000037447500000000074895000074895000300000000000000000                                                      
0809894002AGENCIA DE VIAJES TURAVION SPA                    000000067272201910222020031800148C001300000000500000000009990000035000000000000070000000070000000400000000000000000                                                      
0764088166RIO BLANCO SPA                                    000000067231201910222020071700269C0013000000020000000000099900001524000000000000762000000762000003039-0000134760983                                                      
0761722050AGRICOLA Y COMERCIAL DOÑA PATRICIA LIMITADA       000000067291201910232020040600166E099900000215400000000000130000000030000000000071800000071800000400000000000000000                                                      
0764472039SERVICIOS COMERCIALES AGROFINE EXPORT SPA         000000067381201910242020101900361E099900000071750000000000130000000010000000000071750000071750000400000000000000000                                                      
096615800KEXPORTADORA SUBSOLE S.A.                          000000067541201910302020042400177C0013000000007000000000099900000535500000000000765000000765000003011-0000031852596                                                      
0995461803SOCIEDAD AGRICOLA CERRO CAMPANARIO SPA            000000067601201910302020063000244E001300000000100000000009990000007479000000000074790000074790000301400000000000000                                                      
0995461803SOCIEDAD AGRICOLA CERRO CAMPANARIO SPA            000000067602201910302020063000244E001300000000100000000009990000007150000000000071500000071500000401400000000000000                                                      
0995461803SOCIEDAD AGRICOLA CERRO CAMPANARIO SPA            000000067611201910302020072900273E001300000000100000000009990000007474000000000074740000074740000301400000000000000                                                      
0995461803SOCIEDAD AGRICOLA CERRO CAMPANARIO SPA            000000067612201910302020072900273E001300000000100000000009990000007150000000000071500000071500000401400000000000000                                                      
0995461803SOCIEDAD AGRICOLA CERRO CAMPANARIO SPA            000000067621201910302020082800303E001300000000100000000009990000007467000000000074670000074670000301400000000000000                                                      
0995461803SOCIEDAD AGRICOLA CERRO CAMPANARIO SPA            000000067622201910302020082800303E001300000000100000000009990000007150000000000071500000071500000401400000000000000                                                      
0760908541PUREFRUIT CHILE S.A                               000000067571201910302020102900365C001300000000203196000009990000015381937200000075700000075700000300000000000000000                                                      
0760908541PUREFRUIT CHILE S.A                               000000067572201910302020102900365C001300000000203196000009990000014325318000000070500000070500000400000000000000000                                                      
0894702001FRUTICOLA Y EXPORTADORA ATACAMA LTDA.             000000067731201911042020102900360C0013000000012500000000099900000963750000000000771000000771000003011-0000134760983                                                      
096566940KAGENCIAS UNIVERSALES S.A.                         000000067821201911052020082700296C001300000001500000000009990000119932500000000079955000079955000307200000000000000                                                      
096566940KAGENCIAS UNIVERSALES S.A.                         000000067822201911052020082700296C001300000001500000000009990000105750000000000070500000070500000407200000000000000                                                      
0763195368SOCIEDAD COMERCIALIZADORA DE MAQUINARIAS SPA      000000068101201911122020060900210E099900000069244054800000130000000008768400000078970000078970000300000000000000000                                                      
000000000 HSBC BANK USA, N.A.                               000000068141201911132020042800167C099900016900000000000000130000002000000000000084500000084500000308100003270000000                                                      
0995461803SOCIEDAD AGRICOLA CERRO CAMPANARIO SPA            000000068211201911132020071400244E001300000000100000000009990000008180000000000081800000081800000301400000000000000                                                      
0995461803SOCIEDAD AGRICOLA CERRO CAMPANARIO SPA            000000068212201911132020071400244E001300000000100000000009990000007600000000000076000000076000000401400000000000000                                                      
0995461803SOCIEDAD AGRICOLA CERRO CAMPANARIO SPA            000000068221201911132020081400275E001300000000100000000009990000008172000000000081720000081720000301400000000000000                                                      
0995461803SOCIEDAD AGRICOLA CERRO CAMPANARIO SPA            000000068222201911132020081400275E001300000000100000000009990000007600000000000076000000076000000401400000000000000                                                      
0081430977CORREA RAAB PATRICIA                              000000068271201911142020051200180E099900000059835000000000130000000007500000000079780000079780000400000000000000000                                                      
0161217247LORENA HARRIS CORREA                              000000068291201911142020051200180E099900000063824000000000130000000008000000000079780000079780000400000000000000000                                                      
0067666976HARRIS FLORES RICARDO                             000000068261201911142020051200180E099900000079780000000000130000000010000000000079780000079780000400000000000000000                                                      
0153433143BARBARA  HARRIS CORREA                            000000068281201911142020051200180E099900000079780000000000130000000010000000000079780000079780000400000000000000000                                                      
0798727702MONTES SA                                         000000068451201911152020051300180C001300000003000000000009990000239490000000000079830000079830000303500000000000000                                                      
0778402408INVERSIONES ALCRI LIMITADA                        000000068431201911152020051300180C099900000655956000000000130000000084000000000078090000078090000400000000000000000                                                      
0798727702MONTES SA                                         000000068452201911152020051300180C001300000003000000000009990000225000000000000075000000075000000403500000000000000                                                      
0801039006ALFOMBRAS BERCIA SOCIEDAD ANONIMA                 000000068651201911212020051900180E099900000039820000000000130000000005000000000079640000079640000300000000000000000                                                      
0801039006ALFOMBRAS BERCIA SOCIEDAD ANONIMA                 000000068661201911222020052000180E099900000023967000000000130000000003000000000079890000079890000300000000000000000                                                      
0760698938ASERRADERO DE MADERAS ORLANDO SAEZ BURGOS E.I.R.L.000000062831201911252020052200179C099900000685000000000000130000000100000000000068500000068500000400000000000000000                                                      
0801039006ALFOMBRAS BERCIA SOCIEDAD ANONIMA                 000000068751201911252020052500182E099900000011955046944000130000000001507192000079320000079320000300000000000000000                                                      
0801039006ALFOMBRAS BERCIA SOCIEDAD ANONIMA                 000000068771201911262020052500181E099900000039665000000000130000000005000000000079330000079330000300000000000000000                                                      
0762233401FORESTAL CAMELIO LIMITADA                         000000068781201911272020052500180C099900000239100000000000130000000030000000000079700000079700000400000000000000000                                                      
0765311101VIÑA ANDESTERRA LTDA.                             000000068831201911272020052500180C099900000398000000000000130000000050000000000079600000079600000403500000000000000                                                      
0764754816AGRICOLA ALTO NILAHUE S.A.                        000000068861201911272020061500201E099900000159020000000000130000000020000000000079510000079510000400000000000000000                                                      
0768972206AGRICOLA LA TRAPA S.A.                            000000068851201911272020061500201E099900000238530000000000130000000030000000000079510000079510000400000000000000000                                                      
0776073105AGRIFRUT COMERCIAL LIMITADA                       000000068821201911272020082400271C0013000000005000000000099900000425000000000000850000000850000003000-0000047778894                                                      
0760072680NICOFRUT S.A.                                     000000069301201911282020051500169C0013000000001000000000099900000084590000000000845900000845900003012-0001106794315                                                      
0760072680NICOFRUT S.A.                                     000000069302201911282020051500169C001300000000100000000009990000008000000000000080000000080000000401200001102464031                                                      
0760072680NICOFRUT S.A.                                     000000069311201911282020061500200C001300000000100000000009990000008458000000000084580000084580000301200000000000000                                                      
0760072680NICOFRUT S.A.                                     000000069312201911282020061500200C001300000000100000000009990000008000000000000080000000080000000401200000000000000                                                      
0760072680NICOFRUT S.A.                                     000000069321201911282020071500230C001300000000100000000009990000008454000000000084540000084540000301200000000000000                                                      
0760072680NICOFRUT S.A.                                     000000069322201911282020071500230C001300000000100000000009990000008000000000000080000000080000000401200000000000000                                                      
0995461803SOCIEDAD AGRICOLA CERRO CAMPANARIO SPA            000000068961201911282020072800243E001300000000100000000009990000008383500000000083835000083835000301400000000000000                                                      
0995461803SOCIEDAD AGRICOLA CERRO CAMPANARIO SPA            000000068962201911282020072800243E001300000000100000000009990000008000000000000080000000080000000401400000000000000                                                      
0760072680NICOFRUT S.A.                                     000000069331201911282020081400260C001300000000100000000009990000008452000000000084520000084520000301200000000000000                                                      
0760072680NICOFRUT S.A.                                     000000069332201911282020081400260C001300000000100000000009990000008000000000000080000000080000000401200000000000000                                                      
0995461803SOCIEDAD AGRICOLA CERRO CAMPANARIO SPA            000000068971201911282020082800274E001300000000100000000009990000008385200000000083852000083852000301400000000000000                                                      
0995461803SOCIEDAD AGRICOLA CERRO CAMPANARIO SPA            000000068972201911282020082800274E001300000000100000000009990000008000000000000080000000080000000401400000000000000                                                      
0995461803SOCIEDAD AGRICOLA CERRO CAMPANARIO SPA            000000068981201911282020092800305E001300000000100000000009990000008350000000000083500000083500000301400000000000000                                                      
0995461803SOCIEDAD AGRICOLA CERRO CAMPANARIO SPA            000000068982201911282020092800305E001300000000100000000009990000008000000000000080000000080000000401400000000000000                                                      
0762629348SICPA GOVERMENT SECURITY SOLUTIONS LATAM SPA      000000069361201911292020032300115E099900000402700000000000130000000050000000000080540000080540000306300000000000000                                                      
0761098284FRUTICOLA ANDESTERRA LIMITADA                     000000069391201911292020052700180C099900000202000000000000130000000025000000000080800000080800000403300000000000000                                                      
0761732110RECUPERADORA DE EXCEDENTES INDUSTRIALES NORTE VERD000000067391201912032020040900128E099900000720900000000000130000000100000000000072090000072090000400000000000000000                                                      
0761732110RECUPERADORA DE EXCEDENTES INDUSTRIALES NORTE VERD000000067511201912032020051400163E099900000725000000000000130000000100000000000072500000072500000400000000000000000                                                      
0965307400INMOBILIARIA E INV. SAN SEBASTIAN S.A.            000000069761201912042020030300090C0999000003800000000000001300000000500000000000760000000760000004035-0000036752995                                                      
0760185205IMPORTADORA Y EXPORTADORA ALTAMIRA LIMITADA       000000069801201912052020040300120E099900000114318000000000130000000014500000000078840000078840000300000000000000000                                                      
0937340001PAPELERA DIMAR S.A.                               000000069781201912052020120400365E099900000785900000000000130000000100000000000078590000078590000303300000000000000                                                      
0767623704FENASA S.A.                                       000000069831201912062020040600122E099900000013194075603000130000000001692199000077970000077970000300000000000000000                                                      
0761462229SERVICIOS AGROINDUSTRIALES DANILO VALDES E IRL    000000069821201912062020041500131C099900000775000000000000130000000100000000000077500000077500000406300000000000000                                                      
0801039006ALFOMBRAS BERCIA SOCIEDAD ANONIMA                 000000069851201912062020060300180E099900000015654000000000130000000002000000000078270000078270000300000000000000000                                                      
0937340001PAPELERA DIMAR S.A.                               000000069811201912062020120400364E099900000779400000000000130000000100000000000077940000077940000303300000000000000                                                      
0937340001PAPELERA DIMAR S.A.                               000000069991201912112020121000365E099900000759533500000000130000000098500000000077110000077110000303300000000000000                                                      
0818360002COPEFRUT S.A.                                     000000070121201912122020030400083C001300000000300000000009990000021000000000000070000000070000000400000000007182025                                                      
0818360002COPEFRUT S.A.                                     000000070491201912122020030600085C001300000000150000000009990000012630000000000084200000084200000300000000000000000                                                      
0818360002COPEFRUT S.A.                                     000000070492201912122020030600085C001300000000150000000009990000010500000000000070000000070000000400000000000000000                                                      
0818360002COPEFRUT S.A.                                     000000070501201912122020031300092C001300000000150000000009990000012645000000000084300000084300000300000000000000000                                                      
0818360002COPEFRUT S.A.                                     000000070131201912122020031300092C001300000000138000000009990000009660000000000070000000070000000400000000003943915                                                      
0818360002COPEFRUT S.A.                                     000000070502201912122020031300092C001300000000150000000009990000010500000000000070000000070000000400000000000000000                                                      
0818360002COPEFRUT S.A.                                     000000070511201912122020032000099C001300000000150000000009990000012661500000000084410000084410000300000000000000000                                                      
0818360002COPEFRUT S.A.                                     000000070512201912122020032000099C001300000000150000000009990000010500000000000070000000070000000400000000000000000                                                      
0818360002COPEFRUT S.A.                                     000000070141201912122020032000099C001300000000600000000009990000042000000000000070000000070000000400000000019567037                                                      
0818360002COPEFRUT S.A.                                     000000070521201912122020032700106C001300000000150000000009990000012675000000000084500000084500000300000000000000000                                                      
0818360002COPEFRUT S.A.                                     000000070151201912122020032700106C001300000000138000000009990000009660000000000070000000070000000400000000005059111                                                      
0818360002COPEFRUT S.A.                                     000000070522201912122020032700106C001300000000150000000009990000010500000000000070000000070000000400000000000000000                                                      
0818360002COPEFRUT S.A.                                     000000070161201912122020040300113C001300000000300000000009990000021000000000000070000000070000000400000000012209835                                                      
0818360002COPEFRUT S.A.                                     000000070171201912122020041300123C001300000000100000000009990000007000000000000070000000070000000400000000004640090                                                      
0818360002COPEFRUT S.A.                                     000000070181201912122020041700127C001300000000100000000009990000007000000000000070000000070000000400000000004873606                                                      
0818360002COPEFRUT S.A.                                     000000070191201912122020042400134C001300000000600000000009990000042000000000000070000000070000000400000000031630093                                                      
0818360002COPEFRUT S.A.                                     000000070201201912122020043000140C001300000000100000000009990000007000000000000070000000070000000400000000005608311                                                      
0818360002COPEFRUT S.A.                                     000000070211201912122020050400144C001300000000300000000009990000021000000000000070000000070000000400000000017490187                                                      
0818360002COPEFRUT S.A.                                     000000070221201912122020051500155C001300000000100000000009990000007000000000000070000000070000000400000000006425955                                                      
0818360002COPEFRUT S.A.                                     000000070231201912122020052200162C001300000000600000000009990000042000000000000070000000070000000400000000040749602                                                      
0818360002COPEFRUT S.A.                                     000000070241201912122020052900169C001300000000100000000009990000007000000000000070000000070000000400000000007148115                                                      
0818360002COPEFRUT S.A.                                     000000070251201912122020060400175C001300000000300000000009990000021000000000000070000000070000000400000000022338544                                                      
0818360002COPEFRUT S.A.                                     000000070261201912122020061200183C001300000000155000000009990000010850000000000070000000070000000400000000012140323                                                      
0818360002COPEFRUT S.A.                                     000000070271201912122020061900190C001300000000100000000009990000007000000000000070000000070000000400000000008188310                                                      
0818360002COPEFRUT S.A.                                     000000070281201912122020062400195C001300000000600000000009990000042000000000000070000000070000000400000000050625732                                                      
0760707503A.A COMERCIAL LTDA.                               000000070052201912122020062500196C099900000270409650000000130000000035700000000075745000075745000406100000000000000                                                      
0760707503A.A COMERCIAL LTDA.                               000000070053201912122020062500196C001300000000357000000009990000028917000000000081000000081000000306100000000000000                                                      
0760707503A.A COMERCIAL LTDA.                               000000070051201912122020062500196C099900000270409650000000130000000035700000000075745000075745000306100000000000000                                                      
0818360002COPEFRUT S.A.                                     000000070291201912122020070300204C001300000000200000000009990000014000000000000070000000070000000400000000017751697                                                      
0818360002COPEFRUT S.A.                                     000000070301201912122020071000211C001300000000200000000009990000014000000000000070000000070000000400000000018414464                                                      
0818360002COPEFRUT S.A.                                     000000070311201912122020071700218C001300000000100000000009990000007000000000000070000000070000000400000000009530223                                                      
0763885909PROMOCIONES Y MARKETING S.A.                      000000070101201912122020072400225E099900000137074261500000130000000017790300000077050000077050000300000000000000000                                                      
0818360002COPEFRUT S.A.                                     000000070321201912122020072400225C001300000000600000000009990000042000000000000070000000070000000400000000059068238                                                      
0818360002COPEFRUT S.A.                                     000000070331201912122020080400236C001300000000200000000009990000014000000000000070000000070000000400000000020643386                                                      
0818360002COPEFRUT S.A.                                     000000070341201912122020081400246C001300000000100000000009990000007000000000000070000000070000000400000000010736996                                                      
0818360002COPEFRUT S.A.                                     000000070351201912122020082400256C001300000000600000000009990000042000000000000070000000070000000400000000066809240                                                      
0818360002COPEFRUT S.A.                                     000000070361201912122020082800260C001300000000150000000009990000010500000000000070000000070000000400000000016933698                                                      
0818360002COPEFRUT S.A.                                     000000070371201912122020090400267C001300000000150000000009990000010500000000000070000000070000000400000000017328731                                                      
0818360002COPEFRUT S.A.                                     000000070381201912122020091100274C001300000000150000000009990000010500000000000070000000070000000400000000017711060                                                      
0818360002COPEFRUT S.A.                                     000000070391201912122020091600279C001300000000100000000009990000007000000000000070000000070000000400000000011980913                                                      
0818360002COPEFRUT S.A.                                     000000070401201912122020092400287C001300000000600000000009990000042000000000000070000000070000000400000000073496055                                                      
080706200KPATRICIO OTERO F Y COMPANIA LIMITADA              000000070562201912132020051500154C099900000037800000000000130000000005000000000075600000075600000400000000000000000                                                      
080706200KPATRICIO OTERO F Y COMPANIA LIMITADA              000000070563201912132020051500154C001300000000050000000009990000004000000000000080000000080000000300000000000000000                                                      
0888553002OTERO Y DOMINGUEZ LTDA                            000000070552201912132020051500154C099900000378000000000000130000000050000000000075600000075600000403500000000000000                                                      
0888553002OTERO Y DOMINGUEZ LTDA                            000000070553201912132020051500154C001300000000500000000009990000040000000000000080000000080000000303500000000000000                                                      
080706200KPATRICIO OTERO F Y COMPANIA LIMITADA              000000070561201912132020051500154C099900000037800000000000130000000005000000000075600000075600000300000000000000000                                                      
0888553002OTERO Y DOMINGUEZ LTDA                            000000070551201912132020051500154C099900000378000000000000130000000050000000000075600000075600000303500000000000000                                                      
0767623704FENASA S.A.                                       000000070811201912172020051500150E099900000037950000000000130000000005000000000075900000075900000300000000000000000                                                      
0776073105AGRIFRUT COMERCIAL LIMITADA                       000000070841201912172020061500181C0013000000004000000000099900000324000000000000810000000810000003000-0000015681278                                                      
0760707503A.A COMERCIAL LTDA.                               000000070862201912172020062500191C099900000298524000000000130000000040000000000074631000074631000406100000000000000                                                      
0760707503A.A COMERCIAL LTDA.                               000000070863201912172020062500191C001300000000400000000009990000032000000000000080000000080000000306100000000000000                                                      
0760707503A.A COMERCIAL LTDA.                               000000070861201912172020062500191C099900000298524000000000130000000040000000000074631000074631000306100000000000000                                                      
0776073105AGRIFRUT COMERCIAL LIMITADA                       000000070851201912172020071400210C0013000000004000000000099900000324000000000000810000000810000003000-0000020581677                                                      
0965156607CENTRAL DE COMPRAS DEL EXTRASISTEMA S.A.          000000070792201912172020121100360C099900001483200000000000130000000200000000000074160000074160000406100000000000000                                                      
0965156607CENTRAL DE COMPRAS DEL EXTRASISTEMA S.A.          000000070793201912172020121100360C001300000002000000000009990000160000000000000080000000080000000306100000000000000                                                      
0965156607CENTRAL DE COMPRAS DEL EXTRASISTEMA S.A.          000000070791201912172020121100360C099900001483200000000000130000000200000000000074160000074160000306100000000000000                                                      
0969999307KITCHEN CENTER SPA                                000000071181201912192020033000102C099900000949384800000000130000000126000000000075348000075348000300000000000000000                                                      
0969999307KITCHEN CENTER SPA                                000000071121201912192020043000133C099900001130970000000000130000000150000000000075398000075398000300000000000000000                                                      
0969999307KITCHEN CENTER SPA                                000000071131201912192020052900162C099900001130970000000000130000000150000000000075398000075398000300000000000000000                                                      
0969999307KITCHEN CENTER SPA                                000000071141201912192020063000194C099900001130970000000000130000000150000000000075398000075398000300000000000000000                                                      
0969999307KITCHEN CENTER SPA                                000000071151201912192020072800222C099900001130970000000000130000000150000000000075398000075398000300000000000000000                                                      
0969999307KITCHEN CENTER SPA                                000000071161201912192020082800253C099900001130970000000000130000000150000000000075398000075398000300000000000000000                                                      
0969999307KITCHEN CENTER SPA                                000000071171201912192020092500281C099900001017873000000000130000000135000000000075398000075398000300000000000000000                                                      
0788937709RGM MALLAS DE ALAMBRE LTDA.                       000000071422201912262020042200118C099900000440193354400000130000000059178500000074384000074384000400000000000000000                                                      
0788937709RGM MALLAS DE ALAMBRE LTDA.                       000000071423201912262020042200118C001300000000591785000009990000047342800000000080000000080000000300000000000000000                                                      
0788937709RGM MALLAS DE ALAMBRE LTDA.                       000000071421201912262020042200118C099900000440193354400000130000000059178500000074384000074384000300000000000000000                                                      
0779647102IMP Y DIST DE TECNOLOGIA DEL PACIFICO SUR S.A.    000000071431201912262020062300180E099900000087565185540000130000000011690946000074900000074900000303100000000000000                                                      
0801039006ALFOMBRAS BERCIA SOCIEDAD ANONIMA                 000000071461201912272020062400180E0999-000000000011967680013-000000000000016000074798000074798000300000000000000000                                                      
0151176445BIGNOTTI MONTENEGRO CLAUDIO GIOVANNI              000000071481202001022020052900148E099900000246840000000000130000000033000000000074800000074800000400000000000000000                                                      
0764754816AGRICOLA ALTO NILAHUE S.A.                        000000071501202001022020063000180E099900000225000000000000130000000030000000000075000000075000000400000000000000000                                                      
0768972206AGRICOLA LA TRAPA S.A.                            000000071491202001022020063000180E099900000375000000000000130000000050000000000075000000075000000400000000000000000                                                      
0760755427COMERCIAL E INVERSIONES COMATEL S.A               000000071631202001062020031600070E099900000038715000000000130000000005000000000077430000077430000300000000000000000                                                      
0764798554METALES ANDALUCIA SPA                             000000071621202001062020050500120E099900000199602000000000130000000026000000000076770000076770000400000000000000000                                                      
0764798554METALES ANDALUCIA SPA                             000000071671202001072020050600120E099900000192325000000000130000000025000000000076930000076930000400000000000000000                                                      
0774710302THYSSENKRUPP INDUSTRIAL SOLUTIONS (CHILE) LTDA    000000060201202001082020061900163C099900005265008643500000130000000797124700000066050000066050000400000000000000000                                                      
0995461803SOCIEDAD AGRICOLA CERRO CAMPANARIO SPA            000000071951202001102020091400248E001300000000100000000009990000007946900000000079469000079469000301400000000000000                                                      
0995461803SOCIEDAD AGRICOLA CERRO CAMPANARIO SPA            000000071952202001102020091400248E001300000000100000000009990000007500000000000075000000075000000401400000000000000                                                      
0995461803SOCIEDAD AGRICOLA CERRO CAMPANARIO SPA            000000071961202001102020101400278E001300000000100000000009990000007951000000000079510000079510000301400000000000000                                                      
0995461803SOCIEDAD AGRICOLA CERRO CAMPANARIO SPA            000000071962202001102020101400278E001300000000100000000009990000007500000000000075000000075000000401400000000000000                                                      
076176375KCOMERCIAL ECOSUR SPA                              000000072031202001132020030200049E099900000000000015570000130000000000000002000077850000077850000400000000000000000                                                      
0764455304PESCA ARTESANAL ERIC ARAVENA E.I.R.L.             000000063411202001152020071300180E099900000205500000000000130000000030000000000068500000068500000400000000000000000                                                      
0764455304PESCA ARTESANAL ERIC ARAVENA E.I.R.L.             000000063741202001152020071300180E099900000417000000000000130000000060000000000069500000069500000400000000000000000                                                      
0761670913COMERCIAL MARES DE CHILOE SPA                     000000064041202001172020030200045E099900000336696000000000130000000048000000000070145000070145000400000000000000000                                                      
0761670913COMERCIAL MARES DE CHILOE SPA                     000000063541202001172020030200045E099900000479500000000000130000000070000000000068500000068500000400000000000000000                                                      
0776833703ESPEX INGENIERIA LIMITADA                         000000063521202001172020071500180E099900000684000000000000130000000100000000000068400000068400000400000000000000000                                                      
0801039006ALFOMBRAS BERCIA SOCIEDAD ANONIMA                 000000072191202001202020071700179E099900000007926719710000130000000001024786000077350000077350000300000000000000000                                                      
0760698938ASERRADERO DE MADERAS ORLANDO SAEZ BURGOS E.I.R.L.000000063761202001202020071700179C099900000694000000000000130000000100000000000069400000069400000400000000000000000                                                      
0776073105AGRIFRUT COMERCIAL LIMITADA                       000000072201202001242020062200150C0013000000005000000000099900000408500000000000817000000817000003000-0000018376498                                                      
0760228605AGRICOLA EL NOGAL S.A.                            000000064001202001272020052600120E099900000549900000000000130000000078000000000070500000070500000400000000000000000                                                      
0762693887AGRICOLA Y FORESTAL DON PATO S.A.                 000000064011202001272020052600120E099900000549900000000000130000000078000000000070500000070500000400000000000000000                                                      
0766636500EXPORTADORA AGROMAR SOCIEDAD ANONIMA              000000057051202001282021012200360C099900000564390000000000130000000090000000000062710000062710000403900000000000000                                                      
0779296601AGRICOLA NUEVA SAN FRANCISCO LIMITADA             000000072321202001312020060100122E099900000240570000000000130000000030000000000080190000080190000300000000000000000                                                      
0968320300POLYFIBRA S.A.                                    000000072371202002052020051400099C099900000394410000000000130000000050000000000078882000078882000403400000000000000                                                      
0760577693COMERCIALIZADORA DE PRODUCTOS ALIMENTICIOS MYLPAN 000000072381202002062020042300077E099900000008773960800000130000000001126600000077880000077880000300000000000000000                                                      
0995461803SOCIEDAD AGRICOLA CERRO CAMPANARIO SPA            000000072401202002062020060500120E001300000000100000000009990000008041200000000080412000080412000301400000000000000                                                      
0995461803SOCIEDAD AGRICOLA CERRO CAMPANARIO SPA            000000072402202002062020060500120E001300000000100000000009990000007500000000000075000000075000000401400000000000000                                                      
0995461803SOCIEDAD AGRICOLA CERRO CAMPANARIO SPA            000000072421202002062020090400211E001300000000100000000009990000008080500000000080805000080805000301400000000000000                                                      
0995461803SOCIEDAD AGRICOLA CERRO CAMPANARIO SPA            000000072422202002062020090400211E001300000000100000000009990000007500000000000075000000075000000401400000000000000                                                      
0764472039SERVICIOS COMERCIALES AGROFINE EXPORT SPA         000000072441202002132021020500358E099900000158200000000000130000000020000000000079100000079100000400000000000000000                                                      
076525888KCOMERCIAL ARRECIFES SpA                           000000067281202002172020041700060E099900000490994000000000130000000068000000000072205000072205000400000000000000000                                                      
0760707503A.A COMERCIAL LTDA.                               000000072462202002192020032500035C099900000398825000000000130000000050000000000079765000079765000406100000000000000                                                      
0760707503A.A COMERCIAL LTDA.                               000000072463202002192020032500035C001300000000500000000009990000041900000000000083800000083800000306100000000000000                                                      
0760707503A.A COMERCIAL LTDA.                               000000072461202002192020032500035C099900000398825000000000130000000050000000000079765000079765000306100000000000000                                                      
0764472039SERVICIOS COMERCIALES AGROFINE EXPORT SPA         000000072641202002192021021200359E099900000317920000000000130000000040000000000079480000079480000400000000000000000                                                      
0965910409EMPRESAS CAROZZI S A                              000000072751202002202020093000223C001300000002500000000009990000201262500000000080505000080505000303100000000000000                                                      
0965910409EMPRESAS CAROZZI S A                              000000072752202002202020093000223C001300000002500000000009990000201262500000000080505000080505000403100000000000000                                                      
0764472039SERVICIOS COMERCIALES AGROFINE EXPORT SPA         000000067091202002202020102000243E099900000071500000000000130000000010000000000071500000071500000400000000000000000                                                      
0764472039SERVICIOS COMERCIALES AGROFINE EXPORT SPA         000000067591202002202020102700250E099900000072800000000000130000000010000000000072800000072800000400000000000000000                                                      
0995200007COMPAÑIA DE PETROLEOS DE CHILE COPEC S.A.         000000072811202002212020030600014C099900011629748610000000130000001431900000000081219000081219000403500000000000000                                                      
0760755427COMERCIAL E INVERSIONES COMATEL S.A               000000072831202002212020042900068E099900000161120000000000130000000020000000000080560000080560000300000000000000000                                                      
0969900505HIDROELECTRICA LA HIGUERA S.A.                    000000072791202002212020042900068C099900002460330000000000130000000300000000000082011000082011000400000000000000000                                                      
0775704608COMERCIAL REGINA LTDA                             000000072821202002212020052900098E099900000323280000000000130000000040000000000080820000080820000400000000000000000                                                      
0763502503HIDROELECTRICA LA CONFLUENCIA S.A.                000000072901202002242020042900065C099900000820110000000000130000000100000000000082011000082011000400000000000000000                                                      
0928470008JUGUETES INTERNACIONALES SOCIEDAD ANONIMA         000000072911202002242020052900095C099900001255422500000000130000000155000000000080995000080995000306100000000000000                                                      
0995200007COMPAÑIA DE PETROLEOS DE CHILE COPEC S.A.         000000072981202002252020030600010C099900002960919720000000130000000363660000000081420000081420000403500000000000000                                                      
0995461803SOCIEDAD AGRICOLA CERRO CAMPANARIO SPA            000000072941202002252020102600244E001300000000100000000009990000008340000000000083400000083400000301400000000000000                                                      
0995461803SOCIEDAD AGRICOLA CERRO CAMPANARIO SPA            000000072942202002252020102600244E001300000000100000000009990000007800000000000078000000078000000401400000000000000                                                      
0995461803SOCIEDAD AGRICOLA CERRO CAMPANARIO SPA            000000072931202002252020112600275E001300000000100000000009990000008344000000000083440000083440000301400000000000000                                                      
0995461803SOCIEDAD AGRICOLA CERRO CAMPANARIO SPA            000000072932202002252020112600275E001300000000100000000009990000007800000000000078000000078000000401400000000000000                                                      
0760423920IMPORTADORA Y EXPORTADORA PRIMEC LIMITADA         000000073181202002262020082400180C099900000807500000000000130000000100000000000080750000080750000406200000000000000                                                      
0965910409EMPRESAS CAROZZI S A                              000000073201202002272020123000307C001300000002500000000009990000204050000000000081620000081620000303100000000000000                                                      
0965910409EMPRESAS CAROZZI S A                              000000073202202002272020123000307C001300000002500000000009990000204050000000000081620000081620000403100000000000000                                                      
0796905107DISTRIBUIDORA  DE COMBUSTIBLES CONDE Y DIAZ LTDA. 000000064261202002272021021900358E099900000070800000000000130000000010000000000070800000070800000400000000000000000                                                      
0761046055INVERSIONES E INMOBILIARIA IFI S.A.               000000062851202002282020030900010C099900000695700000000000130000000100000000000069570000069570000400000000000000000                                                      