0766636500EXPORTADORA AGROMAR SOCIEDAD ANONIMA              000000057051201905062020013000269C001300000001800000000009990000113130000000000062850000062850000403900000000000000                                                      
0968676202GESTION DE EXPORTACIONES FRUTICOLAS S.A.          000000057641201807272019072600364C0013000000100000000000099900006750000000000000675000000675000003000-0001461315398                                                      
0965910409EMPRESAS CAROZZI S A                              000000057791201808132019123000504C001300000005500000000009990000361790000000000065780000065780000303100000000000000                                                      
0965910409EMPRESAS CAROZZI S A                              000000057792201808132019123000504C001300000005500000000009990000361790000000000065780000065780000403100000000000000                                                      
0808305003COMERCIAL SATEX LIMITADA                          000000057861201808162019072600344E099900000331500000000000130000000050000000000066300000066300000303500000000000000                                                      
0808305003COMERCIAL SATEX LIMITADA                          000000057862201808162019072600344E099900000331500000000000130000000050000000000066300000066300000403500000000000000                                                      
0808305003COMERCIAL SATEX LIMITADA                          000000057863201808162019072600344C001300000000500000000009990000036000000000000072000000072000000303500000000000000                                                      
078848870KCOMERCIAL TERRANO LTDA.                           000000057871201808162019072600344E099900000331500000000000130000000050000000000066300000066300000303500000000000000                                                      
078848870KCOMERCIAL TERRANO LTDA.                           000000057872201808162019072600344E099900000331500000000000130000000050000000000066300000066300000403500000000000000                                                      
078848870KCOMERCIAL TERRANO LTDA.                           000000057873201808162019072600344C001300000000500000000009990000036000000000000072000000072000000303500000000000000                                                      
0760263788COMERCIAL ANDES SPORT LTDA.                       000000057881201808162019072600344E099900000331500000000000130000000050000000000066300000066300000300000000000000000                                                      
0760263788COMERCIAL ANDES SPORT LTDA.                       000000057882201808162019072600344E099900000331500000000000130000000050000000000066300000066300000400000000000000000                                                      
0760263788COMERCIAL ANDES SPORT LTDA.                       000000057883201808162019072600344C001300000000500000000009990000036000000000000072000000072000000300000000000000000                                                      
000000000 HSBC BANK USA, N.A.                               000000058041201808242019072600336C099900006750000000000000130000001000000000000067500000067500000308100003170000000                                                      
0894702001FRUTICOLA Y EXPORTADORA ATACAMA LTDA.             000000058061201808292019082300359C0013000000012150000000099900000844425000000000695000000695000003011-0000101218966                                                      
0965910409EMPRESAS CAROZZI S A                              000000058101201808292019093000397C001300000002600000000009990000173448600000000066711000066711000303100000000000000                                                      
0965910409EMPRESAS CAROZZI S A                              000000058102201808292019093000397C001300000002600000000009990000173448600000000066711000066711000403100000000000000                                                      
0776073105AGRIFRUT COMERCIAL LIMITADA                       000000058181201808302019080900344C0013000000016000000000099900001136000000000000710000000710000003000-0000138814581                                                      
0965910409EMPRESAS CAROZZI S A                              000000058271201809042019123000482C001300000002400000000009990000165612000000000069005000069005000303100000000000000                                                      
0965910409EMPRESAS CAROZZI S A                              000000058272201809042019123000482C001300000002400000000009990000165612000000000069005000069005000403100000000000000                                                      
0798676806AGRICOLA PEPPI SPA                                000000058321201809102019090500360C0013000000012000000000099900000876000000000000730000000730000003033-0000117124803                                                      
0910810006ENEL GENERACION CHILE S.A.                        000000058541201809272019103000398C001300000018000000000009990001186740000000000065930000065930000304100000000000000                                                      
0910810006ENEL GENERACION CHILE S.A.                        000000058542201809272019103000398C001300000018000000000009990001186740000000000065930000065930000404100000000000000                                                      
0910810006ENEL GENERACION CHILE S.A.                        000000058551201809272019112900428C001300000022000000000009990001451120000000000065960000065960000304100000000000000                                                      
0910810006ENEL GENERACION CHILE S.A.                        000000058552201809272019112900428C001300000022000000000009990001451120000000000065960000065960000404100000000000000                                                      
0769209298TRANSMISORA DEL PACIFICO S.A.                     000000058621201810032019100900371C001300000004000000000009990000275200000000000068800000068800000300000000000000000                                                      
0769209298TRANSMISORA DEL PACIFICO S.A.                     000000058622201810032019100900371C001300000004000000000009990000256000000000000064000000064000000400000000000000000                                                      
0769209298TRANSMISORA DEL PACIFICO S.A.                     000000058631201810032020010800462C001300000004000000000009990000276580000000000069145000069145000300000000000000000                                                      
0769209298TRANSMISORA DEL PACIFICO S.A.                     000000058632201810032020010800462C001300000004000000000009990000256000000000000064000000064000000400000000000000000                                                      
076052445KEXPORTADORA E IMPORTADORA FERNÁNDEZ ROMERO LTDA.  000000058641201810042019073000299C001300000000500000000009990000033957500000000067915000067915000300000000000000000                                                      
076052445KEXPORTADORA E IMPORTADORA FERNÁNDEZ ROMERO LTDA.  000000058642201810042019073000299C001300000000500000000009990000033250000000000066500000066500000400000000000000000                                                      
0769209298TRANSMISORA DEL PACIFICO S.A.                     000000058771201902062019080700182C001300000004000000000009990000279200000000000069800000069800000300000000000000000                                                      
0769209298TRANSMISORA DEL PACIFICO S.A.                     000000058772201902062019080700182C001300000004000000000009990000264000000000000066000000066000000400000000000000000                                                      
0769209298TRANSMISORA DEL PACIFICO S.A.                     000000058781201902062019110600273C001300000004000000000009990000284000000000000071000000071000000300000000000000000                                                      
0769209298TRANSMISORA DEL PACIFICO S.A.                     000000058782201902062019110600273C001300000004000000000009990000264000000000000066000000066000000400000000000000000                                                      
076052445KEXPORTADORA E IMPORTADORA FERNÁNDEZ ROMERO LTDA.  000000058841201810082019083000326C001300000000420000000009990000028644000000000068200000068200000300000000000000000                                                      
076052445KEXPORTADORA E IMPORTADORA FERNÁNDEZ ROMERO LTDA.  000000058842201810082019083000326C001300000000420000000009990000028350000000000067500000067500000400000000000000000                                                      
0769209298TRANSMISORA DEL PACIFICO S.A.                     000000058851201810082020040800548C001300000004000000000009990000281600000000000070400000070400000300000000000000000                                                      
0769209298TRANSMISORA DEL PACIFICO S.A.                     000000058852201810082020040800548C001300000004000000000009990000264000000000000066000000066000000400000000000000000                                                      
0769209298TRANSMISORA DEL PACIFICO S.A.                     000000058861201810082020090900702C001300000004000000000009990000282000000000000070500000070500000300000000000000000                                                      
0769209298TRANSMISORA DEL PACIFICO S.A.                     000000058862201810082020090900702C001300000004000000000009990000264000000000000066000000066000000400000000000000000                                                      
0769209298TRANSMISORA DEL PACIFICO S.A.                     000000058871201810082020100700730C001300000004000000000009990000291600000000000072900000072900000300000000000000000                                                      
0769209298TRANSMISORA DEL PACIFICO S.A.                     000000058872201810082020100700730C001300000004000000000009990000264000000000000066000000066000000400000000000000000                                                      
0778199505AGRO ENTRE RIOS LIMITADA                          000000058971201810122019081600308C001300000000300000000009990000020523600000000068412000068412000300000000000000000                                                      
0778199505AGRO ENTRE RIOS LIMITADA                          000000058972201810122019081600308C001300000000300000000009990000020100000000000067000000067000000400000000000000000                                                      
0778199505AGRO ENTRE RIOS LIMITADA                          000000058981201810122019091700340C001300000000240000000009990000016432320000000068468000068468000300000000000000000                                                      
0778199505AGRO ENTRE RIOS LIMITADA                          000000058982201810122019091700340C001300000000240000000009990000016080000000000067000000067000000400000000000000000                                                      
0798687700EMPRESAS LOURDES S.A.                             000000059061201810232019073000280C001300000003858000000009990000268169580000000069510000069510000300000000000000000                                                      
0798687700EMPRESAS LOURDES S.A.                             000000059062201810232019073000280C001300000003858000000009990000258486000000000067000000067000000400000000000000000                                                      
0798687700EMPRESAS LOURDES S.A.                             000000059071201810232019081600297C001300000003924000000009990000272796480000000069520000069520000300000000000000000                                                      
0798687700EMPRESAS LOURDES S.A.                             000000059072201810232019081600297C001300000003924000000009990000262908000000000067000000067000000400000000000000000                                                      
0798687700EMPRESAS LOURDES S.A.                             000000059081201810232019083000311C001300000003924000000009990000272835720000000069530000069530000300000000000000000                                                      
0798687700EMPRESAS LOURDES S.A.                             000000059082201810232019083000311C001300000003924000000009990000262908000000000067000000067000000400000000000000000                                                      
0760093289ENLASA GENERACION CHILE S.A.                      000000059211201810262019073100278C001300000001000000000009990000067693000000000067693000067693000406300000000000000                                                      
0760093289ENLASA GENERACION CHILE S.A.                      000000059221201810262019083000308C001300000001000000000009990000067694000000000067694000067694000406300000000000000                                                      
0760093289ENLASA GENERACION CHILE S.A.                      000000059231201810262019093000339C001300000001000000000009990000067694000000000067694000067694000406300000000000000                                                      
0760093289ENLASA GENERACION CHILE S.A.                      000000059241201810262019103000369C001300000001000000000009990000067698000000000067698000067698000406300000000000000                                                      
0894702001FRUTICOLA Y EXPORTADORA ATACAMA LTDA.             000000059331201810312019102500359C0013000000040000000000099900002880000000000000720000000720000003011-0000578394089                                                      
000000000 HSBC BANK USA, N.A.                               000000059351201810312019102500359C099900010800000000000000130000001500000000000072000000072000000308100005175000000                                                      
0894702001FRUTICOLA Y EXPORTADORA ATACAMA LTDA.             000000059451201811142019110800359C0013000000010100000000099900000727200000000000720000000720000003011-0000122908744                                                      
0968676202GESTION DE EXPORTACIONES FRUTICOLAS S.A.          000000059501201811162019081300270C0013000000080000000000099900005376000000000000672000000672000003000-0002287362031                                                      
0968676202GESTION DE EXPORTACIONES FRUTICOLAS S.A.          000000059531201811222019081900270C0013000000022000000000099900001467400000000000667000000667000003000-0000704814610                                                      
0968676202GESTION DE EXPORTACIONES FRUTICOLAS S.A.          000000059541201811222020011600420C0013000000095500000000099900006369850000000000667000000667000003000-0003030872435                                                      
0760845000COMERCIAL ALPHATEX LIMITADA                       000000059641201811262019072600242E099900000026668000000000130000000004000000000066670000066670000300000000000000000                                                      
0760845000COMERCIAL ALPHATEX LIMITADA                       000000059642201811262019072600242E099900000026668000000000130000000004000000000066670000066670000400000000000000000                                                      
0760845000COMERCIAL ALPHATEX LIMITADA                       000000059643201811262019072600242C001300000000040000000009990000002880000000000072000000072000000300000000000000000                                                      
0968676202GESTION DE EXPORTACIONES FRUTICOLAS S.A.          000000059881201812132019073100230C0013000000022000000000099900001513600000000000688000000688000003000-0000578394089                                                      
0000000000UBS AG                                            000000059951201812192019081300237C099900014400000000000000130000002000000000000072000000072000000300000004250000000                                                      
0968676202GESTION DE EXPORTACIONES FRUTICOLAS S.A.          000000060111201901022020010200365C0013000000093000000000099900006472800000000000696000000696000003000-0003555677661                                                      
000000000 HSBC BANK USA, N.A.                               000000060131201901022020010200365C099900010500000000000000130000001500000000000070000000070000000308100006258750000                                                      
0774710302THYSSENKRUPP INDUSTRIAL SOLUTIONS (CHILE) LTDA    000000060201201901072019092700263C001300000019955886000009990001350015687900000067650000067650000400000000000000000                                                      
0965156607CENTRAL DE COMPRAS DEL EXTRASISTEMA S.A.          000000060361201901172019091600242C099900000329700000000000130000000050000000000065940000065940000306100000000000000                                                      
0965156607CENTRAL DE COMPRAS DEL EXTRASISTEMA S.A.          000000060362201901172019091600242C099900000329700000000000130000000050000000000065940000065940000406100000000000000                                                      
0965156607CENTRAL DE COMPRAS DEL EXTRASISTEMA S.A.          000000060363201901172019091600242C001300000000500000000009990000035000000000000070000000070000000306100000000000000                                                      
0965156607CENTRAL DE COMPRAS DEL EXTRASISTEMA S.A.          000000060371201901172019101500271C099900000329000000000000130000000050000000000065800000065800000306100000000000000                                                      
0965156607CENTRAL DE COMPRAS DEL EXTRASISTEMA S.A.          000000060372201901172019101500271C099900000329000000000000130000000050000000000065800000065800000406100000000000000                                                      
0965156607CENTRAL DE COMPRAS DEL EXTRASISTEMA S.A.          000000060373201901172019101500271C001300000000500000000009990000035000000000000070000000070000000306100000000000000                                                      
0965156607CENTRAL DE COMPRAS DEL EXTRASISTEMA S.A.          000000060381201901172019111500302C099900000328375000000000130000000050000000000065675000065675000306100000000000000                                                      
0965156607CENTRAL DE COMPRAS DEL EXTRASISTEMA S.A.          000000060382201901172019111500302C099900000328375000000000130000000050000000000065675000065675000406100000000000000                                                      
0965156607CENTRAL DE COMPRAS DEL EXTRASISTEMA S.A.          000000060383201901172019111500302C001300000000500000000009990000035000000000000070000000070000000306100000000000000                                                      
0965156607CENTRAL DE COMPRAS DEL EXTRASISTEMA S.A.          000000060391201901172019121600333C099900000327725000000000130000000050000000000065545000065545000306100000000000000                                                      
0965156607CENTRAL DE COMPRAS DEL EXTRASISTEMA S.A.          000000060392201901172019121600333C099900000327725000000000130000000050000000000065545000065545000406100000000000000                                                      
0965156607CENTRAL DE COMPRAS DEL EXTRASISTEMA S.A.          000000060393201901172019121600333C001300000000500000000009990000035000000000000070000000070000000306100000000000000                                                      
096615800KEXPORTADORA SUBSOLE S.A.                          000000060581201902012019073000179C0013000000025000000000099900001762500000000000705000000705000003011-0000078083202                                                      
0995683806NUTRIMARKET S.A                                   000000060651201902042019082000197C099900000129500000000000130000000020000000000064750000064750000300000000000000000                                                      
0995683806NUTRIMARKET S.A                                   000000060652201902042019082000197C099900000129500000000000130000000020000000000064750000064750000400000000000000000                                                      
0995683806NUTRIMARKET S.A                                   000000060653201902042019082000197C001300000000200000000009990000013800000000000069000000069000000300000000000000000                                                      
0788130708SOCIEDAD DE INVERSIONES FRULAC LIMITADA           000000060711201902112019081200182E001300000001000000000009990000066100000000000066100000066100000400000000000000000                                                      
0965819703EXPORTADORA SANTA CRUZ S.A.                       000000060751201902142019081300180C0013000000015000000000099900001050000000000000700000000700000003035-0000079167691                                                      
0788937709RGM MALLAS DE ALAMBRE LTDA.                       000000060841201902212019080500165C099900000256179513600000130000000039460800000064920000064920000300000000000000000                                                      
0788937709RGM MALLAS DE ALAMBRE LTDA.                       000000060842201902212019080500165C099900000256179513600000130000000039460800000064920000064920000400000000000000000                                                      
0788937709RGM MALLAS DE ALAMBRE LTDA.                       000000060843201902212019080500165C001300000000394608000009990000026833344000000068000000068000000300000000000000000                                                      
0799632608MINERA LAS CENIZAS S.A.                           000000061001201903012019082700179C0013000000025000000000099900001725000000000000690000000690000003000-0000144598522                                                      
0808305003COMERCIAL SATEX LIMITADA                          000000061051201903082019112700264C099900000331800000000000130000000050000000000066360000066360000303500000000000000                                                      
0808305003COMERCIAL SATEX LIMITADA                          000000061052201903082019112700264C099900000331800000000000130000000050000000000066360000066360000403500000000000000                                                      
0808305003COMERCIAL SATEX LIMITADA                          000000061053201903082019112700264C001300000000500000000009990000036000000000000072000000072000000303500000000000000                                                      
078848870KCOMERCIAL TERRANO LTDA.                           000000061061201903082019112700264E099900000331800000000000130000000050000000000066360000066360000303500000000000000                                                      
078848870KCOMERCIAL TERRANO LTDA.                           000000061062201903082019112700264E099900000331800000000000130000000050000000000066360000066360000403500000000000000                                                      
078848870KCOMERCIAL TERRANO LTDA.                           000000061063201903082019112700264C001300000000500000000009990000036000000000000072000000072000000303500000000000000                                                      
078848870KCOMERCIAL TERRANO LTDA.                           000000061071201903112019112700261E099900000333275000000000130000000050000000000066655000066655000303500000000000000                                                      
078848870KCOMERCIAL TERRANO LTDA.                           000000061072201903112019112700261E099900000333275000000000130000000050000000000066655000066655000403500000000000000                                                      
078848870KCOMERCIAL TERRANO LTDA.                           000000061073201903112019112700261C001300000000500000000009990000036000000000000072000000072000000303500000000000000                                                      
0808305003COMERCIAL SATEX LIMITADA                          000000061081201903112019112700261E099900000333275000000000130000000050000000000066655000066655000303500000000000000                                                      
0808305003COMERCIAL SATEX LIMITADA                          000000061082201903112019112700261E099900000333275000000000130000000050000000000066655000066655000403500000000000000                                                      
0808305003COMERCIAL SATEX LIMITADA                          000000061083201903112019112700261C001300000000500000000009990000036000000000000072000000072000000303500000000000000                                                      
096566940KAGENCIAS UNIVERSALES S.A.                         000000061091201903082019112500262C001300000001500000000009990000105600000000000070400000070400000307200000000000000                                                      
096566940KAGENCIAS UNIVERSALES S.A.                         000000061092201903082019112500262C001300000001500000000009990000097200000000000064800000064800000407200000000000000                                                      
0775942703AGRICOLA AGROMAR LTDA                             000000061101201903082019090400180E001300000000200000000009990000013360000000000066800000066800000403900000000000000                                                      
0788130708SOCIEDAD DE INVERSIONES FRULAC LIMITADA           000000061111201903082019090400180E001300000001000000000009990000067150000000000067150000067150000400000000000000000                                                      
0764088166RIO BLANCO SPA                                    000000061161201903132019090900180C0013000000029000000000099900002030000000000000700000000700000003039-0000144598522                                                      
0760228605AGRICOLA EL NOGAL S.A.                            000000061171201903132019090900180E001300000000700000000009990000046760000000000066800000066800000400000000000000000                                                      
0762693887AGRICOLA Y FORESTAL DON PATO S.A.                 000000061181201903132019090900180E001300000000700000000009990000046760000000000066800000066800000400000000000000000                                                      
0775942703AGRICOLA AGROMAR LTDA                             000000061191201903142019090400174E001300000000200000000009990000013370000000000066850000066850000403900000000000000                                                      
0818360002COPEFRUT S.A.                                     000000061221201903142019072600134C001300000000500000000009990000034730000000000069460000069460000300000000000000000                                                      
0818360002COPEFRUT S.A.                                     000000061222201903142019072600134C001300000000500000000009990000032500000000000065000000065000000400000000000000000                                                      
0995461803SOCIEDAD AGRICOLA CERRO CAMPANARIO SPA            000000061261201903202019081600149E001300000000100000000009990000006819000000000068190000068190000301400000000000000                                                      
0995461803SOCIEDAD AGRICOLA CERRO CAMPANARIO SPA            000000061262201903202019081600149E001300000000100000000009990000006500000000000065000000065000000401400000000000000                                                      
096566940KAGENCIAS UNIVERSALES S.A.                         000000061281201903222019121700270C001300000001500000000009990000106470000000000070980000070980000307200000000000000                                                      
096566940KAGENCIAS UNIVERSALES S.A.                         000000061282201903222019121700270C001300000001500000000009990000097500000000000065000000065000000407200000000000000                                                      
096566940KAGENCIAS UNIVERSALES S.A.                         000000061291201903222019122600279C001300000001500000000009990000106485000000000070990000070990000307200000000000000                                                      
096566940KAGENCIAS UNIVERSALES S.A.                         000000061292201903222019122600279C001300000001500000000009990000097500000000000065000000065000000407200000000000000                                                      
0965910409EMPRESAS CAROZZI S A                              000000061301201903222020063000466C001300000001700000000009990000115370500000000067865000067865000303100000000000000                                                      
0965910409EMPRESAS CAROZZI S A                              000000061302201903222020063000466C001300000001700000000009990000115370500000000067865000067865000403100000000000000                                                      
0965910409EMPRESAS CAROZZI S A                              000000061311201903222020093000558C001300000000425000000009990000028810750000000067790000067790000303100000000000000                                                      
0965910409EMPRESAS CAROZZI S A                              000000061312201903222020093000558C001300000000425000000009990000028810750000000067790000067790000403100000000000000                                                      
0784130002TURISMO LAGO GREY S A                             000000061351201903222019123000283E001300000000500000000009990000033850000000000067700000067700000400000000000000000                                                      
0891640005AGROINDUSTRIAL SURFRUT LTDA.                      000000061401201903282019123000277C001300000000824693000009990000059790242500000072500000072500000300000000000000000                                                      
0891640005AGROINDUSTRIAL SURFRUT LTDA.                      000000061402201903282019123000277C001300000000824693000009990000053605045000000065000000065000000400000000000000000                                                      
0891640005AGROINDUSTRIAL SURFRUT LTDA.                      000000061411201903282020013000308C001300000000976412000009990000070789870000000072500000072500000300000000000000000                                                      
0891640005AGROINDUSTRIAL SURFRUT LTDA.                      000000061412201903282020013000308C001300000000976412000009990000063466780000000065000000065000000400000000000000000                                                      
0891640005AGROINDUSTRIAL SURFRUT LTDA.                      000000061421201903282020022800337C001300000000817858000009990000059294705000000072500000072500000300000000000000000                                                      
0891640005AGROINDUSTRIAL SURFRUT LTDA.                      000000061422201903282020022800337C001300000000817858000009990000053160770000000065000000065000000400000000000000000                                                      
0891640005AGROINDUSTRIAL SURFRUT LTDA.                      000000061431201903282020032700365C001300000000924742000009990000067043795000000072500000072500000300000000000000000                                                      
0891640005AGROINDUSTRIAL SURFRUT LTDA.                      000000061432201903282020032700365C001300000000924742000009990000060108230000000065000000065000000400000000000000000                                                      
0788937709RGM MALLAS DE ALAMBRE LTDA.                       000000061471201904032019111500226C099900000267219610000000130000000040365500000066200000066200000300000000000000000                                                      
0788937709RGM MALLAS DE ALAMBRE LTDA.                       000000061472201904032019111500226C099900000267219610000000130000000040365500000066200000066200000400000000000000000                                                      
0788937709RGM MALLAS DE ALAMBRE LTDA.                       000000061473201904032019111500226C001300000000403655000009990000028659505000000071000000071000000300000000000000000                                                      
0968777602MULTIFRUTA S.A.                                   000000061521201904082020051200400C0013000000018000000000099900001251000000000000695000000695000003000-0000206927440                                                      
0760739219ESTRELLA SOLITARIA S.A.                           000000061651201904122019093000171E099900000258000000000000130000000040000000000064500000064500000305100000156166404                                                      
0764088166RIO BLANCO SPA                                    000000061721201904232019102100181C0013000000020000000000099900001390000000000000695000000695000003039-0000109894877                                                      
0764437608AGRICOLA Y FRUTICOLA HUAQUEN LIMITADA             000000061761201904242019112900219E001300000000296000000009990000019861600000000067100000067100000400000000000000000                                                      
0775942703AGRICOLA AGROMAR LTDA                             000000061801201904252019100700165E001300000000400000000009990000026960000000000067400000067400000403900000000000000                                                      
0865549008SOC AGRICOLA RIO CHEPU LTDA                       000000061811201904252019091700145E001300000001500000000009990000101025000000000067350000067350000400000000000000000                                                      
076525888KCOMERCIAL ARRECIFES SpA                           000000061831201904262019072500090E001300000000260000000009990000017500600000000067310000067310000400000000000000000                                                      
0965910409EMPRESAS CAROZZI S A                              000000061911201904302020063000427C001300000002400000000009990000163452000000000068105000068105000303100000000000000                                                      
0965910409EMPRESAS CAROZZI S A                              000000061912201904302020063000427C001300000002400000000009990000163452000000000068105000068105000403100000000000000                                                      
0763924068MAR DE LAGOS EXPORT LIMITADA                      000000061921201904302019072900090C001300000000500000000009990000033900000000000067800000067800000400000000000000000                                                      
0776065501SOCIEDAD DE TURISMO RIO SERRANO S.A               000000061931201904302020060300400C001300000007000000000009990000473900000000000067700000067700000403900000000000000                                                      
0968320300POLYFIBRA S.A.                                    000000061941201904302019080800100C001300000000300000000009990000020478000000000068260000068260000403400000000000000                                                      
096566940KAGENCIAS UNIVERSALES S.A.                         000000061961201905022020022600300C0013000000015000000000099900001086225000000000724150000724150003072-0000082980225                                                      
096566940KAGENCIAS UNIVERSALES S.A.                         000000061962201905022020022600300C001300000001500000000009990000098700000000000065800000065800000407200000077828839                                                      
0788130708SOCIEDAD DE INVERSIONES FRULAC LIMITADA           000000061971201905022019073100090E001300000000500000000009990000034160000000000068320000068320000400000000000000000                                                      
0760698938ASERRADERO DE MADERAS ORLANDO SAEZ BURGOS E.I.R.L.000000061991201905022019083000120C001300000000200000000009990000013620000000000068100000068100000400000000000000000                                                      
0865549008SOC AGRICOLA RIO CHEPU LTDA                       000000062021201905032019091700137E001300000001000000000009990000067500000000000067500000067500000400000000000000000                                                      
0818360002COPEFRUT S.A.                                     000000062041201905062019072900084C001300000000500000000009990000035945000000000071890000071890000300000000000000000                                                      
0818360002COPEFRUT S.A.                                     000000062042201905062019072900084C001300000000500000000009990000032500000000000065000000065000000400000000000000000                                                      
0818360002COPEFRUT S.A.                                     000000062051201905062019082900115C001300000000500000000009990000036085000000000072170000072170000300000000000000000                                                      
0818360002COPEFRUT S.A.                                     000000062052201905062019082900115C001300000000500000000009990000032500000000000065000000065000000400000000000000000                                                      
0818360002COPEFRUT S.A.                                     000000062061201905062019092700144C001300000000500000000009990000036150000000000072300000072300000300000000000000000                                                      
0818360002COPEFRUT S.A.                                     000000062062201905062019092700144C001300000000500000000009990000032500000000000065000000065000000400000000000000000                                                      
0775704608COMERCIAL REGINA LTDA                             000000062101201905092019090600120E001300000000338135000009990000023118289950000068370000068370000400000000000000000                                                      
0965910409EMPRESAS CAROZZI S A                              000000062131201905132020033100323C001300000002560000000009990000176844800000000069080000069080000303100000000000000                                                      
0965910409EMPRESAS CAROZZI S A                              000000062132201905132020033100323C001300000002560000000009990000176844800000000069080000069080000403100000000000000                                                      
0965910409EMPRESAS CAROZZI S A                              000000062141201905132020063000414C001300000002175000000009990000150292500000000069100000069100000303100000000000000                                                      
0965910409EMPRESAS CAROZZI S A                              000000062142201905132020063000414C001300000002175000000009990000150292500000000069100000069100000403100000000000000                                                      
0778199505AGRO ENTRE RIOS LIMITADA                          000000062161201905132019091600126C001300000000200000000009990000013950000000000069750000069750000300000000000000000                                                      
0778199505AGRO ENTRE RIOS LIMITADA                          000000062162201905132019091600126C001300000000200000000009990000013700000000000068500000068500000400000000000000000                                                      
0778199505AGRO ENTRE RIOS LIMITADA                          000000062171201905132019101500155C001300000000250000000009990000017450000000000069800000069800000300000000000000000                                                      
0778199505AGRO ENTRE RIOS LIMITADA                          000000062172201905132019101500155C001300000000250000000009990000017125000000000068500000068500000400000000000000000                                                      
0778199505AGRO ENTRE RIOS LIMITADA                          000000062181201905132019111500186C001300000000450000000009990000031423500000000069830000069830000300000000000000000                                                      
0778199505AGRO ENTRE RIOS LIMITADA                          000000062182201905132019111500186C001300000000450000000009990000030825000000000068500000068500000400000000000000000                                                      
0764157176COMERCIAL ARIZCUN SpA.                            000000062191201905132019112900200E001300000004000000000009990000276880000000000069220000069220000400000000000000000                                                      
0760892335MATETIC WINE GROUP S.A.                           000000062211201905142019121000210C001300000002000000000009990000141400000000000070700000070700000300000000000000000                                                      
0760892335MATETIC WINE GROUP S.A.                           000000062212201905142019121000210C001300000002000000000009990000136000000000000068000000068000000400000000000000000                                                      
0784130002TURISMO LAGO GREY S A                             000000062221201905152020013100261E001300000000400000000009990000027600000000000069000000069000000400000000000000000                                                      
0784130002TURISMO LAGO GREY S A                             000000062241201905172020022800287E001300000000500000000009990000034760000000000069520000069520000400000000000000000                                                      
0762165112SUGAL CHILE LIMITADA                              000000062271201905172019080100076C001300000001440061000009990000101005878540000070140000070140000300000000000000000                                                      
0762165112SUGAL CHILE LIMITADA                              000000062272201905172019080100076C001300000001440061000009990000099364209000000069000000069000000400000000000000000                                                      
0762165112SUGAL CHILE LIMITADA                              000000062281201905172019090200108C001300000001421961000009990000099779003370000070170000070170000300000000000000000                                                      
0762165112SUGAL CHILE LIMITADA                              000000062282201905172019090200108C001300000001421961000009990000098115309000000069000000069000000400000000000000000                                                      
0762165112SUGAL CHILE LIMITADA                              000000062291201905172019100100137C001300000001427618000009990000100218783600000070200000070200000300000000000000000                                                      
0762165112SUGAL CHILE LIMITADA                              000000062292201905172019100100137C001300000001427618000009990000098505642000000069000000069000000400000000000000000                                                      
0762165112SUGAL CHILE LIMITADA                              000000062301201905172019110400171C001300000001437048000009990000100923881040000070230000070230000300000000000000000                                                      
0762165112SUGAL CHILE LIMITADA                              000000062302201905172019110400171C001300000001437048000009990000099156312000000069000000069000000400000000000000000                                                      
0762165112SUGAL CHILE LIMITADA                              000000062311201905172019120200199C001300000001624619000009990000114145730940000070260000070260000300000000000000000                                                      
0762165112SUGAL CHILE LIMITADA                              000000062312201905172019120200199C001300000001624619000009990000112098711000000069000000069000000400000000000000000                                                      
078838940KEXPORTADORA E INVERSIONES AGROBERRIES S.A.        000000062361201905232020052200365E001300000001000000000009990000070000000000000070000000070000000400000000000000000                                                      
0965910409EMPRESAS CAROZZI S A                              000000062391201905232020063000404C001300000002080000000009990000145454400000000069930000069930000303100000000000000                                                      
0965910409EMPRESAS CAROZZI S A                              000000062392201905232020063000404C001300000002080000000009990000145454400000000069930000069930000403100000000000000                                                      
0965910409EMPRESAS CAROZZI S A                              000000062401201905232020093000496C001300000000400000000009990000028016000000000070040000070040000303100000000000000                                                      
0965910409EMPRESAS CAROZZI S A                              000000062402201905232020093000496C001300000000400000000009990000028016000000000070040000070040000403100000000000000                                                      
0784130002TURISMO LAGO GREY S A                             000000062411201905272020033100309E001300000000500000000009990000034662500000000069325000069325000400000000000000000                                                      
0818360002COPEFRUT S.A.                                     000000062421201905282019082800092C001300000000500000000009990000038022500000000076045000076045000300000000000000000                                                      
0818360002COPEFRUT S.A.                                     000000062422201905282019082800092C001300000000500000000009990000032500000000000065000000065000000400000000000000000                                                      
0818360002COPEFRUT S.A.                                     000000062431201905282019092700122C001300000000500000000009990000038350000000000076700000076700000300000000000000000                                                      
0818360002COPEFRUT S.A.                                     000000062432201905282019092700122C001300000000500000000009990000032500000000000065000000065000000400000000000000000                                                      
0995461803SOCIEDAD AGRICOLA CERRO CAMPANARIO SPA            000000062471201905282019112500181E001300000000100000000009990000007184900000000071849000071849000301400000000000000                                                      
0995461803SOCIEDAD AGRICOLA CERRO CAMPANARIO SPA            000000062472201905282019112500181E001300000000100000000009990000006900000000000069000000069000000401400000000000000                                                      
0995461803SOCIEDAD AGRICOLA CERRO CAMPANARIO SPA            000000062481201905282019122400210E001300000000100000000009990000007189000000000071890000071890000301400000000000000                                                      
0995461803SOCIEDAD AGRICOLA CERRO CAMPANARIO SPA            000000062482201905282019122400210E001300000000100000000009990000006900000000000069000000069000000401400000000000000                                                      
076005335KEXPORTADORA SERGIO RUIZ-TAGLE HUMERES LIMITADA    000000062491201905282019072600059C0013000000023041569000099900001670513752500000725000000725000003041-0000057839409                                                      
078838940KEXPORTADORA E INVERSIONES AGROBERRIES S.A.        000000062501201905282020052700365E001300000001000000000009990000070600000000000070600000070600000400000000000000000                                                      
0766361900AGRICOLA E INVERSIONES ALTO LOS OLMOS             000000062521201905282020052700365E001300000000400000000009990000028192000000000070480000070480000407200000000000000                                                      
0880432001FRUTERA LINDEROS LIMITADA                         000000062551201905282020052700365E001300000000500000000009990000035300000000000070600000070600000400000000000000000                                                      
0762043807AGRICOLA FRUTICOLA Y FORESTAL HIGUERA ORIENTE LTDA000000062561201905282020042200330E001300000000500000000009990000035310000000000070620000070620000405100000000000000                                                      
0761722050AGRICOLA Y COMERCIAL DOÑA PATRICIA LIMITADA       000000062591201905292019082600089E001300000000200000000009990000014080000000000070400000070400000400000000000000000                                                      
0761462229SERVICIOS AGROINDUSTRIALES DANILO VALDES E IRL    000000062601201905292019082700090C001300000000558000000009990000039405960000000070620000070620000406300000000000000                                                      
0968320300POLYFIBRA S.A.                                    000000062611201905292019090500099C001300000000300000000009990000021097500000000070325000070325000403400000000000000                                                      
0762233401FORESTAL CAMELIO LIMITADA                         000000062631201905302019112600180E001300000001000000000009990000070450000000000070450000070450000400000000000000000                                                      
078838940KEXPORTADORA E INVERSIONES AGROBERRIES S.A.        000000062641201905302020052500361E001300000001000000000009990000070900000000000070900000070900000400000000000000000                                                      
0891640005AGROINDUSTRIAL SURFRUT LTDA.                      000000062661201905302020043000336C001300000000963123000009990000073486284900000076300000076300000300000000000000000                                                      
0891640005AGROINDUSTRIAL SURFRUT LTDA.                      000000062662201905302020043000336C001300000000963123000009990000064529241000000067000000067000000400000000000000000                                                      
0891640005AGROINDUSTRIAL SURFRUT LTDA.                      000000062671201905302020052900365C001300000002708913000009990000206690061900000076300000076300000300000000000000000                                                      
0891640005AGROINDUSTRIAL SURFRUT LTDA.                      000000062672201905302020052900365C001300000002708913000009990000181497171000000067000000067000000400000000000000000                                                      
0760908541PUREFRUIT CHILE S.A                               000000062681201905312019123000213C001300000000185305000009990000014138771500000076300000076300000300000000000000000                                                      
0760908541PUREFRUIT CHILE S.A                               000000062682201905312019123000213C001300000000185305000009990000012415435000000067000000067000000400000000000000000                                                      
0760908541PUREFRUIT CHILE S.A                               000000062691201905312020013100245C001300000000088914000009990000006784138200000076300000076300000300000000000000000                                                      
0760908541PUREFRUIT CHILE S.A                               000000062692201905312020013100245C001300000000088914000009990000005957238000000067000000067000000400000000000000000                                                      
0765585929PHOENIX WINES SPA                                 000000062701201905312019102800150E001300000000171595120009990000012157514252000070850000070850000400000000000000000                                                      
0760908541PUREFRUIT CHILE S.A                               000000062711201905312020022800273C001300000000270441000009990000020634648300000076300000076300000300000000000000000                                                      
0760908541PUREFRUIT CHILE S.A                               000000062712201905312020022800273C001300000000270441000009990000018119547000000067000000067000000400000000000000000                                                      
0760908541PUREFRUIT CHILE S.A                               000000062721201905312020032700301C001300000000407139000009990000031064705700000076300000076300000300000000000000000                                                      
0760908541PUREFRUIT CHILE S.A                               000000062722201905312020032700301C001300000000407139000009990000027278313000000067000000067000000400000000000000000                                                      
0760908541PUREFRUIT CHILE S.A                               000000062731201905312020043000335C001300000000156343000009990000011928970900000076300000076300000300000000000000000                                                      
0760908541PUREFRUIT CHILE S.A                               000000062732201905312020043000335C001300000000156343000009990000010474981000000067000000067000000400000000000000000                                                      
0760908541PUREFRUIT CHILE S.A                               000000062741201905312020052900364C001300000000370546000009990000028272659800000076300000076300000300000000000000000                                                      
0760908541PUREFRUIT CHILE S.A                               000000062742201905312020052900364C001300000000370546000009990000024826582000000067000000067000000400000000000000000                                                      
0782897306COMERCIALIZADORA EL MIRADOR S.A.                  000000062751201906052019081400070E099900000000000027734000130000000000000004000069335000069335000308200000000000000                                                      
0937340001PAPELERA DIMAR S.A.                               000000062761201906052020060400365E099900000520863136000000130000000074912000000069530000069530000303300000000000000                                                      
0763644383COMERCIAL ABUFRUT LIMITADA                        000000062781201906052019090300090E001300000000100000000009990000006910000000000069100000069100000400000000000000000                                                      
0937340001PAPELERA DIMAR S.A.                               000000062791201906062020060500365E099900000692700000000000130000000100000000000069270000069270000303300000000000000                                                      
0761034723SOCIEDAD COMERCIAL ACERONE CHILE SA               000000062801201906062019100400120E099900000011798000000000130000000001700000000069400000069400000307200000000000000                                                      
0760755427COMERCIAL E INVERSIONES COMATEL S.A               000000062811201906072019082900083E099900000124992000000000130000000018000000000069440000069440000300000000000000000                                                      
0760755427COMERCIAL E INVERSIONES COMATEL S.A               000000062821201906072019082000074E099900000090272000000000130000000013000000000069440000069440000300000000000000000                                                      
0760698938ASERRADERO DE MADERAS ORLANDO SAEZ BURGOS E.I.R.L.000000062831201906072019120400180C001300000001000000000009990000069085000000000069085000069085000400000000000000000                                                      
0968320300POLYFIBRA S.A.                                    000000062841201906122019091700097C001300000000300000000009990000020919300000000069731000069731000403400000000000000                                                      
0761046055INVERSIONES E INMOBILIARIA IFI S.A.               000000062851201906132020030900270E001300000001000000000009990000069570000000000069570000069570000400000000000000000                                                      
0888553002OTERO Y DOMINGUEZ LTDA                            000000062871201906142019111500154C099900000695450000000000130000000100000000000069545000069545000303500000000000000                                                      
0888553002OTERO Y DOMINGUEZ LTDA                            000000062872201906142019111500154C099900000695450000000000130000000100000000000069545000069545000403500000000000000                                                      
0888553002OTERO Y DOMINGUEZ LTDA                            000000062873201906142019111500154C001300000001000000000009990000074000000000000074000000074000000303500000000000000                                                      
0995461803SOCIEDAD AGRICOLA CERRO CAMPANARIO SPA            000000062901201906142020011000210E001300000000100000000009990000007201000000000072010000072010000301400000000000000                                                      
0995461803SOCIEDAD AGRICOLA CERRO CAMPANARIO SPA            000000062902201906142020011000210E001300000000100000000009990000006800000000000068000000068000000401400000000000000                                                      
0779296601AGRICOLA NUEVA SAN FRANCISCO LIMITADA             000000062911201906192020061100358E001300000000300000000009990000020793000000000069310000069310000400000000000000000                                                      
0968320300POLYFIBRA S.A.                                    000000062921201906192019092600099C001300000000300000000009990000020455800000000068186000068186000403400000000000000                                                      
0763885909PROMOCIONES Y MARKETING S.A.                      000000062931201906192019121600180E099900000315927944200000130000000045516200000069410000069410000300000000000000000                                                      
0766977901COMERCIAL KAYSER LIMITADA                         000000062961201906212019103000131C099900000678460000000000130000000100000000000067846000067846000300000000000000000                                                      
0766977901COMERCIAL KAYSER LIMITADA                         000000062962201906212019103000131C099900000678460000000000130000000100000000000067846000067846000400000000000000000                                                      
0766977901COMERCIAL KAYSER LIMITADA                         000000062963201906212019103000131C001300000001000000000009990000071000000000000071000000071000000300000000000000000                                                      
0766977901COMERCIAL KAYSER LIMITADA                         000000062971201906212019112900161C099900000676730000000000130000000100000000000067673000067673000300000000000000000                                                      
0766977901COMERCIAL KAYSER LIMITADA                         000000062972201906212019112900161C099900000676730000000000130000000100000000000067673000067673000400000000000000000                                                      
0766977901COMERCIAL KAYSER LIMITADA                         000000062973201906212019112900161C001300000001000000000009990000071000000000000071000000071000000300000000000000000                                                      
0766977901COMERCIAL KAYSER LIMITADA                         000000062981201906212019123000192C099900000675980000000000130000000100000000000067598000067598000300000000000000000                                                      
0766977901COMERCIAL KAYSER LIMITADA                         000000062982201906212019123000192C099900000675980000000000130000000100000000000067598000067598000400000000000000000                                                      
0766977901COMERCIAL KAYSER LIMITADA                         000000062983201906212019123000192C001300000001000000000009990000071000000000000071000000071000000300000000000000000                                                      
0765728703TECHFOODS INVERSIONES LIMITADA                    000000062991201906212019082000060E099900000136920000000000130000000020000000000068460000068460000307200000000000000                                                      
0779647102IMP Y DIST DE TECNOLOGIA DEL PACIFICO SUR S.A.    000000063001201906212019112900161E099900000068725000000000130000000010000000000068725000068725000303100000000000000                                                      
0965819703EXPORTADORA SANTA CRUZ S.A.                       000000063021201906252019122400182C0013000000015000000000099900001072500000000000715000000715000003035-0000054947438                                                      
0782897306COMERCIALIZADORA EL MIRADOR S.A.                  000000063031201906252019082600062E099900000000000312248000130000000000000046000067880000067880000308200000000000000                                                      
086931000KAGENCIAS DE REPRESENTACIONES LIMITADA             000000063041201906262019102400120E099900000196531200000000130000000028800000000068240000068240000301100000000000000                                                      
0937340001PAPELERA DIMAR S.A.                               000000063051201906262020062500365E099900000680850000000000130000000100000000000068085000068085000303300000000000000                                                      
0760423920IMPORTADORA Y EXPORTADORA PRIMEC LIMITADA         000000063061201906272019122400180E099900000680700000000000130000000100000000000068070000068070000306200000000000000                                                      
0965819703EXPORTADORA SANTA CRUZ S.A.                       000000063071201906272019122400180C0013000000005000000000099900000357500000000000715000000715000003035-0000020243793                                                      
076019901KSUBTERRA MAQUINARIA MINERA LIMITADA               000000063091201906272019080100035E099900000000000150062000130000000000000022000068210000068210000306100000000000000                                                      
0942720009AES GENER S.A.                                    000000063101201907222019083000039C001300000011000000000009990000753115000000000068465000068465000403500000000000000                                                      
0779776506ALIMENTOS CAROLINA Y COMPAÑIA LTDA.               000000063121201906272019092300088E099900000037284500000000130000000005500000000067790000067790000300000000000000000                                                      
0779776506ALIMENTOS CAROLINA Y COMPAÑIA LTDA.               000000063122201906272019092300088E099900000037284500000000130000000005500000000067790000067790000400000000000000000                                                      
0779776506ALIMENTOS CAROLINA Y COMPAÑIA LTDA.               000000063123201906272019092300088C001300000000055000000009990000003850000000000070000000070000000300000000000000000                                                      
0779776506ALIMENTOS CAROLINA Y COMPAÑIA LTDA.               000000063131201906272019081900053E099900000020385000000000130000000003000000000067950000067950000300000000000000000                                                      
0779776506ALIMENTOS CAROLINA Y COMPAÑIA LTDA.               000000063132201906272019081900053E099900000020385000000000130000000003000000000067950000067950000400000000000000000                                                      
0779776506ALIMENTOS CAROLINA Y COMPAÑIA LTDA.               000000063133201906272019081900053C001300000000030000000009990000002100000000000070000000070000000300000000000000000                                                      
0779647102IMP Y DIST DE TECNOLOGIA DEL PACIFICO SUR S.A.    000000063141201906282019092300087E099900000105043400000000130000000015400000000068210000068210000303100000000000000                                                      
0965962204FRIGORIFICO FIORDOSUR S.A.                        000000063151201906282019121600171C0013000000010000000000099900000730000000000000730000000730000003011-0000017631939                                                      
0760620394PRODUCCIONES E INVERSIONES SWING LIMITADA         000000063161201907012019120500157E099900000101970000000000130000000015000000000067980000067980000300000000000000000                                                      
0779296601AGRICOLA NUEVA SAN FRANCISCO LIMITADA             000000063181201907022020062600360E001300000000200000000009990000013612000000000068060000068060000400000000000000000                                                      
0968320300POLYFIBRA S.A.                                    000000063191201907032019101000099C001300000000300000000009990000020532600000000068442000068442000403400000000000000                                                      
0779296601AGRICOLA NUEVA SAN FRANCISCO LIMITADA             000000063201201907032020062600359E001300000000150000000009990000010183500000000067890000067890000400000000000000000                                                      
076019901KSUBTERRA MAQUINARIA MINERA LIMITADA               000000063211201907032019083000058E099900000340017667500000130000000049845000000068215000068215000306100000000000000                                                      
0796064307VICHERAT Y PRADENAS LIMITADA                      000000063231201907042019080500032E099900001316621342550000130000000194435700000067715000067715000300000000000000000                                                      
0937340001PAPELERA DIMAR S.A.                               000000063241201907042020070300365E099900000677780000000000130000000100000000000067778000067778000303300000000000000                                                      
0761722050AGRICOLA Y COMERCIAL DOÑA PATRICIA LIMITADA       000000063271201907082020021700224E001300000000600000000009990000041040000000000068400000068400000400000000000000000                                                      
0762629348SICPA GOVERMENT SECURITY SOLUTIONS LATAM SPA      000000063281201907082019101600100E001300000000200000000009990000013692000000000068460000068460000406300000000000000                                                      
0788130708SOCIEDAD DE INVERSIONES FRULAC LIMITADA           000000063291201907082019090600060E001300000000500000000009990000034300000000000068600000068600000400000000000000000                                                      
0763195368SOCIEDAD COMERCIALIZADORA DE MAQUINARIAS SPA      000000063321201907152019100300080E099900000100791584600000130000000014673400000068690000068690000300000000000000000                                                      
0968320300POLYFIBRA S.A.                                    000000063331201907102019101700099C001300000000300000000009990000020446800000000068156000068156000403400000000000000                                                      
0831509007MULTITIENDAS CORONA S.A.                          000000063341201907122019100200082C099900000811320000000000130000000120000000000067610000067610000306100000000000000                                                      
0831509007MULTITIENDAS CORONA S.A.                          000000063342201907122019100200082C099900000811320000000000130000000120000000000067610000067610000406100000000000000                                                      
0831509007MULTITIENDAS CORONA S.A.                          000000063343201907122019100200082C001300000001200000000009990000084000000000000070000000070000000306100000000000000                                                      
0968320300POLYFIBRA S.A.                                    000000063351201907172019102400099C001300000000300000000009990000020653500000000068845000068845000403400000000000000                                                      
077460880KCACERES METALES LTDA                              000000063361201907182019101600090E001300000000200000000009990000013663000000000068315000068315000406100000000000000                                                      
0831509007MULTITIENDAS CORONA S.A.                          000000063371201907182019081600029C099900001702500000000000130000000250000000000068100000068100000306100000000000000                                                      
0831509007MULTITIENDAS CORONA S.A.                          000000063372201907182019081600029C099900001702500000000000130000000250000000000068100000068100000406100000000000000                                                      
0831509007MULTITIENDAS CORONA S.A.                          000000063373201907182019081600029C001300000002500000000009990000175000000000000070000000070000000306100000000000000                                                      
077460880KCACERES METALES LTDA                              000000063381201907192019101700090E001300000000200000000009990000013685000000000068425000068425000406100000000000000                                                      
076525888KCOMERCIAL ARRECIFES SpA                           000000063391201907192019101700090E001300000001000000000009990000068460000000000068460000068460000400000000000000000                                                      
0894702001FRUTICOLA Y EXPORTADORA ATACAMA LTDA.             000000063401201907192020071700364C0013000000020000000000099900001430000000000000715000000715000003011-0000253295299                                                      
0764455304PESCA ARTESANAL ERIC ARAVENA EIRL                 000000063411201907222020011700179E001300000000300000000009990000020610000000000068700000068700000400000000000000000                                                      
076525888KCOMERCIAL ARRECIFES SpA                           000000063421201907222019102100091E001300000001000000000009990000068750000000000068750000068750000400000000000000000                                                      
077460880KCACERES METALES LTDA                              000000063431201907232019102100090E001300000000200000000009990000013780000000000068900000068900000406100000000000000                                                      
077460880KCACERES METALES LTDA                              000000063441201907232019102100090E001300000000250000000009990000017300000000000069200000069200000406100000000000000                                                      
0764489683EXPORTADORA ENTRE RIOS SPA                        000000063451201907232019091100050E001300000000250000000009990000017250000000000069000000069000000400000000000000000                                                      
0765156653SCALLOP CHILE S.A.                                000000063461201907232020071700360E001300000003500000000009990000241500000000000069000000069000000402200000000000000                                                      
0969123304INVERSIONES TECNO NET LTDA                        000000063471201907242020072000362E001300000001000000000009990000069030000000000069030000069030000400000000000000000                                                      
0775223308GIDDINGS BERRIES CHILE S.A.                       000000063481201907242020022800219C001300000001500000000009990000103414500000000068943000068943000406100000000000000                                                      
0775223308GIDDINGS BERRIES CHILE S.A.                       000000063491201907242020041500266C001300000001857000000009990000127999296000000068928000068928000406100000000000000                                                      
0775223308GIDDINGS BERRIES CHILE S.A.                       000000063501201907242020063000342C001300000006196000000009990000426947772000000068907000068907000406100000000000000                                                      
076525888KCOMERCIAL ARRECIFES SpA                           000000063511201907242019102200090E001300000000700000000009990000048230000000000068900000068900000400000000000000000                                                      